:020000041000EA
:1000000000000220D9360010A71B00101F1C001092
:100010007F1C0010EB3000102731001000000000A2
:10002000000000000000000000000000A1360010E9
:10003000CB36001000000000D7360010A5370010A6
:10004000F1370010F1370010F1370010F1370010D0
:10005000F1370010F1370010F1370010F1370010C0
:10006000F1370010F1370010F1370010F1370010B0
:10007000F1370010F1370010F1370010F1370010A0
:10008000F1370010F1370010F1370010F137001090
:10009000F1370010F1370010F1370010F137001080
:1000A000F1370010F1370010F1370010F137001070
:1000B000892A0010F1370010F13700101D2A0010B6
:1000C000F1370010312A0010F1370010452A0010D6
:1000D000F1370010F1370010F1370010F137001040
:1000E000F1370010F1370010F1370010F137001030
:1000F000592A0010F13700106D2A0010F137001056
:10010000A9310010C1310010CF310010DD310010D5
:10011000F1370010F1370010F1370010F1370010FF
:10012000F1370010F137001065120010F1370010A0
:1001300019040010F1370010F1370010F1370010EA
:10014000F1370010F1370010F1370010F1370010CF
:10015000F1370010F1370010F1370010F1370010BF
:10016000F1370010F1370010F1370010F1370010AF
:10017000F1370010F1370010F1370010F13700109F
:1003F000F1370010F1370010F1370010FFFFFFFF59
:10040000FFFFFFFFFFFFFFFFFFFFFFFFFEFFFFFFFD
:10041000DFF800F03D06002080B5DFF848030068F3
:10042000000527D5DFF83C03006850F40060DFF8D2
:1004300034130860DFF83013DFF8300302784FF42C
:10044000FA70424301EB0200411C0420FFF7E0FF79
:10045000DFF818030078972804DB0020DFF80C137E
:1004600008701CE0DFF804030078401CDFF8FC1281
:10047000087014E0DFF8EC020068C0030FD5DFF865
:10048000F002006850F48030DFF8E41208600020C9
:10049000DFF8D81208700120DFF8E412087001BDFF
:1004A000F8B515001C00069E6318DBB22A18521E10
:1004B000D2B2C9B2C0B200F0E8FDE4B26400A41E3A
:1004C0001BE04FF4FA7000FB04F0304410F8170002
:1004D00000024FF4FA7101FB04F1314401EB4701D2
:1004E000497850FA81F080B200F09BFDBF1C2800D3
:1004F000C0B2B7EB400FE4D3A41E002C01D00027FC
:10050000F5E7F1BD2DE9F04188B00026FA249625E3
:1005100000F06CFA00F063FA4FF4FA7000F07CFE21
:1005200003AA0A21212000F0BFFB86190A2000F04F
:1005300073FE0DF10D020B21212000F0B5FB861991
:100540009DF80C009DF80D1051EA002147F2217032
:10055000814210D0F6B23200DFF8181204A800F081
:1005600091FE1F2000904FF478437DA200210020CF
:1005700000F030FEFEE71F2000904FF47843DFF8D4
:10058000F8210021002000F025FE00F0FDF886197A
:1005900003220921212000F06DFB86194622122139
:1005A000212000F067FB861900220C21212000F099
:1005B00061FB8619FC275FF0060841220D212120EE
:1005C00000F058FB861907221121212000F052FB70
:1005D000861900223321212000F04CFB86190022CD
:1005E0003421212000F046FB861900222B212120F6
:1005F00000F040FB861900222D21212000F03AFB5B
:10060000861900222E21212000F034FB861914F1D6
:1006100010063A0092B29208D2B21721212000F0BF
:1006200029FB320092B29208D2B21821212000F0A8
:1006300021FB424692B25208D2B21921212000F089
:1006400019FB2A0092B25208D2B21A21212000F0DE
:1006500011FB220092B29208D2B22921212000F08F
:1006600009FB2A0092B25208D2B22C21212000F0BC
:1006700001FB5FEA881010F04000390111F03001F1
:100680000843A90011F00401084316F003060643CD
:100690003200D2B23221212000F0ECFAA80010F092
:1006A000040014F0030404432200D2B22A212120C2
:1006B00000F0E0FA09220B21DFF8C00000F057FE3D
:1006C0008A221021DFF8B40000F051FE002300223E
:1006D0000021DFF8A80000F0FFFD00230022012127
:1006E000DFF8980000F0F8FD002300220221DFF877
:1006F0008C0000F0F1FD002300220321DFF87C00D4
:1007000000F0EAFD002300220421DFF8700000F071
:10071000E3FD002300220521DFF8600000F0DCFD8E
:10072000002300220621DFF8540000F0D5FD00234D
:1007300000220721DFF8440000F0CEFD01200290E6
:100740004FF4FA700190002000902A23DFF818205F
:10075000DFF83010042000F045FE08B0BDE8F0815D
:100760004E470000A0A0044074060020702B01201A
:10077000A0C00440E4370010B437001040F00F4030
:10078000712B012050F00F4010B5002403223D21B1
:10079000212000F06FFA04197F224221212000F06D
:1007A00069FA041909224D21212000F063FA041985
:1007B000FF226421212000F05DFA04192022652126
:1007C000212000F057FA041900226621212000F0B0
:1007D00051FA041948226721212000F04BFA04192C
:1007E000C5220F21212000F045FA0419FF22132110
:1007F000212000F03FFA0419E0226321212000F0BB
:1008000039FA041911221421212000F033FA0419B5
:100810003F222221212000F02DFA04190722232152
:10082000212000F027FA041940222421212000F081
:1008300021FA041930222521212000F01BFA041985
:10084000A1222621212000F015FA041900222B21D3
:10085000212000F00FFA0419AA226B21212000F0B8
:1008600009FA041941220D21212000F003FA04198C
:1008700005229021212000F0FDF904190122912187
:10088000212000F0F7F9041903229221212000F021
:10089000F1F9041900229321212000F0EBF9041949
:1008A00090229421212000F0E5F904198A22952153
:1008B000212000F0DFF9041906229621212000F002
:1008C000D9F904190B229721212000F0D3F904193A
:1008D00095229821212000F0CDF90419A022992118
:1008E000212000F0C7F904191E229A21212000F0CE
:1008F000C1F9041908229B21212000F0BBF9041939
:1009000020229C21212000F0B5F9041981229E218A
:10091000212000F0AFF904190422A621212000F0C3
:10092000A9F904190C227E21212000F0A3F9041951
:1009300016227F21212000F09DF904192A2280210E
:10094000212000F097F904194E228121212000F086
:1009500091F9041961228221212000F08BF90419F8
:100960006F228321212000F085F904197B22842144
:10097000212000F07FF9041986228521212000F032
:1009800079F904198E228621212000F073F90419C7
:1009900097228721212000F06DF90419A4228821D3
:1009A000212000F067F90419AF228921212000F0ED
:1009B00061F90419C5228A21212000F05BF904198C
:1009C000D7228B21212000F055F90419E8228C212F
:1009D000212000F04FF904192000C0B210BD80B5ED
:1009E00080221221212000F045F901BD80B50123AC
:1009F000012209219A4800F06FFC9A48006850F0E3
:100A0000030098490860012301220821944800F05E
:100A100063FC9548006850F003009349086001BDED
:100A20000020002001E000BF401C010089B2B1F5A8
:100A30007A7FF8DB704780B58C48006850F400700E
:100A40008A4908608948006850F4807087490860C6
:100A5000FFF7E6FF8248006850F480708049086024
:100A60007F48006850F400707D490860FFF7D8FFA8
:100A70007B48006830F4807079490860FFF7D0FF48
:100A80007748006830F4007075490860FFF7C8FFC8
:100A900001BD80B57548006850F400707349086066
:100AA0007248006850F4807070490860FFF7B8FF22
:100AB0006B48006830F4807069490860FFF7B0FF48
:100AC0006748006850F4007065490860FFF7A8FFA8
:100AD0006348006850F4807061490860FFF7A0FF28
:100AE00001BD38B504006148006850F480705F496A
:100AF0000860002522E05A48006830F480705849A8
:100B0000086007E02006F6D55548006850F480706C
:100B1000534908606400FFF783FF5148006850F4B0
:100B200000704F490860FFF77BFF4D48006830F4C4
:100B300000704B490860FFF773FF6D1C2800C0B2BE
:100B40000828DFDB4948006830F4807047490860B6
:100B5000FFF766FF4248006850F4007040490860A3
:100B6000FFF75EFF42480468240A14F001043C4881
:100B7000006830F400703A490860FFF751FF3B48C5
:100B8000006850F48070394908602000C0B232BD5E
:100B900038B500243548006850F4007033490860C7
:100BA0003248006830F480703049086000251AE04F
:100BB000FFF736FF2A48006850F4007028490860A3
:100BC000FFF72EFF64002A480068C0F300200028C9
:100BD00000D0641CFFF724FF2148006830F4007047
:100BE0001F4908606D1C2800C0B20828E0DB1F48C0
:100BF000006850F480701D490860FFF711FF200065
:100C0000C0B232BD80B51948006850F40070174971
:100C100008601648006850F4807014490860104855
:100C2000006830F400700E490860FFF7F9FE0C48C8
:100C3000006850F480700A490860FFF7F1FE084828
:100C4000006850F4007006490860FFF7E9FE0448A8
:100C5000006830F4007002490860FFF7E1FE01BD52
:100C600040F00F4024A0044020A0044054F00F4066
:100C700050F00F4070B504000D0016000020FFF783
:100C8000DAFE64002000C0B2FFF72BFF2800C0B2DC
:100C9000FFF727FF3000C0B2FFF723FF0400FFF784
:100CA000F8FE2000C0B270BDF8B504000D001600BB
:100CB00000276400FFF7BFFE2000C0B2FFF711FF5E
:100CC000C719FFF7ADFE2800C0B2FFF70AFFC7192A
:100CD000FFF7A6FEFFF7DDFEFFF7A2FEFFF7ABFE74
:100CE00054F001042000C0B2FFF7FBFEC719FFF764
:100CF0004FFF3070FFF786FFFFF7CBFE3800C0B222
:100D0000F2BD0268531C03601170704780B5002368
:100D100001220F21DFF8F40400F0DEFA00230122A3
:100D20001021DFF8E80400F0D7FA00230122112196
:100D3000DFF8D80400F0D0FA002301221821DFF8F0
:100D4000CC0400F0C9FA002301221921DFF8BC0409
:100D500000F0C2FADFF8B404006830F40040DFF8B5
:100D6000AC140860322000F057FADFF8A0040068E5
:100D700050F40040DFF894140860322000F04CFA80
:100D8000112000F0DEF8052000F046FA3A2000F0CD
:100D9000D8F8552000F011F9262000F0D2F80420F0
:100DA00000F00BF9F22000F0CCF8012000F005F97A
:100DB000E02000F0C6F83F2000F0FFF8252000F00A
:100DC000FCF81C2000F0F9F81E2000F0F6F82020B6
:100DD00000F0F3F8122000F0F0F82A2000F0EDF80F
:100DE000902000F0EAF8242000F0E7F8112000F04D
:100DF000E4F8002000F0E1F8002000F0DEF8002028
:100E000000F0DBF8002000F0D8F8002000F0D5F862
:100E1000E12000F096F8202000F0CFF8202000F02C
:100E2000CCF8202000F0C9F8202000F0C6F80520FA
:100E300000F0C3F8002000F0C0F8152000F0BDF865
:100E4000A72000F0BAF83D2000F0B7F8182000F015
:100E5000B4F8252000F0B1F82A2000F0AEF82B20DD
:100E600000F0ABF82B2000F0A8F83A2000F0A5F82D
:100E7000B12000F066F8002000F09FF8002000F09C
:100E80009CF8B42000F05DF8072000F096F8C02030
:100E900000F057F80A2000F090F8022000F08DF8DA
:100EA000C12000F04EF8022000F087F8C52000F0C5
:100EB00048F84F2000F081F85A2000F07EF8C72053
:100EC00000F03FF8402000F078F82A2000F039F8D0
:100ED000002000F072F8002000F06FF8002000F011
:100EE0006CF8A82000F069F82B2000F02AF8002008
:100EF00000F063F8002000F060F8002000F05DF8DA
:100F0000B32000F05AF8362000F01BF8A02000F0C3
:100F100054F8B72000F015F8002000F04EF8292012
:100F200000F00FF82C2000F00CF801BD0100481E65
:100F3000002905D000213229F8DA00BF491CFAE760
:100F4000704738B50400DFF8C402006830F4803020
:100F5000DFF8B812086000252AE0DFF8B002006868
:100F600030F40030DFF8A412086014E0DFF89C02CF
:100F7000006830F08070DFF8941208600120FFF7FD
:100F8000D5FF2006E9D5DFF88402006850F4003070
:100F9000DFF878120860DFF87402006850F08070A3
:100FA000DFF8681208600120FFF7C0FF64006D1CC5
:100FB0002800C0B20828D9DB31BDDFF8501209681B
:100FC00051F48031DFF844221160002124E0DFF881
:100FD0003C22126832F40032DFF830321A6011E03D
:100FE000DFF82822126832F08072DFF820321A60AF
:100FF0000206ECD5DFF81422126852F40032DFF852
:101000000C321A60DFF80422126852F08072DFF8A6
:10101000FC311A604000491C0A00D2B2082ADFDB0A
:101020007047DFF8EC11096851F48031DFF8E021F6
:101030001160002124E0DFF8D821126832F4003278
:10104000DFF8CC311A6011E0DFF8C421126832F009
:101050008072DFF8BC311A600204ECD5DFF8B021F1
:10106000126852F40032DFF8A8311A60DFF8A021CC
:10107000126852F08072DFF898311A604000491C03
:101080000A00D2B2102ADFDB7047F8B504000D0069
:1010900016001F002A20FFF754FF0020FFF78DFFE6
:1010A0002000C0B2FFF789FF0020FFF786FF300065
:1010B000C0B2FFF782FF2B20FFF743FF0020FFF7AE
:1010C0007CFF2800C0B2FFF778FF0020FFF775FF14
:1010D0003800C0B2FFF771FF2C20FFF732FFF1BDDF
:1010E00080B52A20FFF72DFF0020FFF766FF0020C4
:1010F000FFF763FF0020FFF760FFA820FFF75DFF09
:101100002B20FFF71EFF0020FFF757FF0020FFF7FF
:1011100054FF0020FFF751FFB320FFF74EFF2C20B4
:10112000FFF70FFF01BD70B50400FFF7D9FF0025E1
:1011300007E0200080B2FFF774FF761C842EF8D3FE
:101140006D1CA22D01D20026F8E770BD2DE9F041FB
:1011500015001E00069C0A00D2B212010F321300C5
:10116000DBB20200D2B2D200D21DD2B2C9B20901A2
:10117000C9B2C0B2C000C0B2FFF787FF002700E0CD
:101180007F1C3800C0B2102822DA5FF00008404609
:10119000C0B20828F4DADFF87C002900C9B20901DE
:1011A00008443900C9B20844B0F500700078012144
:1011B00011FA08F1084204D1200080B2FFF731FF94
:1011C00003E0300080B2FFF72CFF18F10108DEE7E2
:1011D000BDE8F0812DE9FC4105000E00170098469E
:1011E000089C0EE03800471C210089B2009143465C
:1011F0009BB202783100C9B22800C0B2FFF7A6FF47
:101200006D1C38780028EDD1BDE8F38100F00F4067
:1012100000F00F400800002080B580B200F001F817
:1012200001BD010089B200291BD01249096851F0A3
:101230000101104A116000210F4A116080B210496B
:10124000086005200D49086001200B4908600A4824
:1012500000680006FBD508480068400840000649C1
:10126000086070470448006850F080000249086038
:10127000704700003880044000000440040004402F
:10128000080004400CB430B583B0044606A80290B0
:101290000A4600250194009502AB01A9084878444C
:1012A0001E3000F00BFA01990D7000284EBF044665
:1012B0000198041B204603B030BC5DF80CFB00BF56
:1012C00043FAFFFF012210F01F018A403D4940B25E
:1012D000400941F82020704770B43B4C246854F416
:1012E0007854394D2C600500384EAD1B08D0403D78
:1012F00008D0403D08D0403D08D0403D08D009E02E
:10130000334C07E0334C05E0334C03E0334C01E051
:10131000334CFFE74FF4807544F82150D2B2012AD4
:1013200015D1426901248C4022434261012B06D130
:101330000268012313FA01F1114301600EE0026813
:10134000012313FA01F132EA0101016006E042696A
:10135000012313FA01F132EA0101416170BC7047C7
:101360000268012313FA01F151400160704738B55A
:10137000164D401B08D0403809D040380AD04038BC
:101380000BD040380CD00EE0114C3B230BE0114C3D
:101390003C2308E0104C3D2305E0104C3E2302E0C6
:1013A0000F4C3F23FFE7D2B2120412F4702252F422
:1013B0008072C9B244F82120180040B2FFF782FFC2
:1013C00031BD000000E100E03880044000F00F4033
:1013D0000090044000A0044000B0044000C004405D
:1013E00000D00440F0B51C00059D2B00DBB2002BA3
:1013F00001D101260CE02B00DBB2012B01D102262A
:1014000006E02B00DBB2022B01D1042600E01026FF
:10141000079B069FDFF884C2DCF800C05CF4807C88
:10142000DFF878E2CEF800C0DFF874C2DCF800C064
:101430005CF0020CDFF868E2CEF800C0DFF864C2AE
:1014400086465FFA8EFE5FEA4E1E4CF80E10DFF8FD
:1014500054C286465FFA8EFE5FEA4E1EF444CCF814
:1014600010200022DFF83CC286465FFA8EFE5FEA5B
:101470004E1EF444ACF804203200D2B2DFF824C28D
:1014800086465FFA8EFE5FEA4E1EF444ACF81420E6
:101490002A00D2B2120212F4E062AC465FFA8CFC6F
:1014A0001CF0070C5CEA0202DFF8F8C186465FFA1E
:1014B0008EFE5FEA4E1EF444ACF806203A00520459
:1014C000520CDFF8E0C186465FFA8EFE5FEA4E1EE0
:1014D000F444ACF816203A00D205D20DDFF8C4C1AE
:1014E00086465FFA8EFE5FEA4E1EF444ACF81E207C
:1014F000DFF8B421126832F08002DFF8ACC1CCF81A
:1015000000203200D2B2DFF89CC186465FFA8EFE20
:101510005FEA4E1EF444CCF808200022DFF884C1B4
:1015200086465FFA8EFE5FEA4E1EF444CCF80C202D
:101530009A0601D47F4200E00027DFF86821844644
:101540005FFA8CFC5FEA4C1C624497610A22DFF868
:10155000547184465FFA8CFC5FEA4C1C6744BA8382
:101560002200D2B25209313252F08002DFF83C71CF
:10157000C0B23A54DFF8380102684FF40077200017
:10158000C0B2400987403A43DFF824010260DFF827
:1015900024012200D2B2521150F82220DFF81401A7
:1015A0002700FFB27F1150F8270047695FF0010C58
:1015B00014F01F001CFA00FC37EA0C075761DFF833
:1015C000F8002200D2B2521150F822002200D2B20A
:1015D00012F01F021F00FFB217F00307DBB29B09D6
:1015E000DBB253EA074353F4807340F82230200003
:1015F000C0B2002801D0012000E000202D4A2300C5
:10160000DBB25B1152F823202A4BE4B2641153F889
:1016100024305B69012414FA00F033EA00005061C1
:10162000234800684FF400720B009B0913F0070376
:101630009A4010431E4A1060EDB2002D03D0022DD7
:1016400009D004D30BE000200A1D107007E0002031
:101650000A1D108003E000200A1D1060FFE708004B
:10166000103810F03F00F6B2F60056FA80F20DE0A6
:10167000114B0C00A40914F0070453F824300400A3
:10168000E4B24FF4817543F82450401C0300140069
:10169000DBB2E4B2A342EBD3F0BD000040800440D3
:1016A0003C80044000900040008000400010024058
:1016B00038800440F80500200C0600202DE9F84F82
:1016C00092B081461C98DFF80C828DF82F001546E9
:1016D00000209A46029108900FF290464FF0FF3793
:1016E0000CE025280FD015F8011B0298C8470028E8
:1016F000029000F0D8800898401C089028780028B4
:10170000EFD10898E8E000200021059006910790AD
:1017100001E041F0010115F8010F2028F9D023283C
:101720000CD02B2804D02D2805D0302809D0BCE0BF
:1017300041F00201EFE741F00401ECE741F008015C
:10174000E9E741F01001E6E700200A9009E00A9875
:10175000404505DA00EB800302EB4302303A0A927F
:101760006D1C2A78A2F130000A28F0D328782E28A0
:1017700018BF099726D115F8010F2A280AD1DAF8DF
:101780000000CAF800006D1C50F8042BCAF80000D5
:10179000099217E02D280CBF15F8010B002000223C
:1017A00009920AE040B9099A424505DA02EB82043F
:1017B00003EB4403303B09936D1C2B78A3F13002FB
:1017C0000A2AEFD3ADF82C103046297800F0E0F962
:1017D00008B115F8010B8DF82E009DF82E00682831
:1017E00004BF2978682903D162208DF82E006D1C72
:1017F0000CA80490524615F8013B01A9484600F098
:1018000099F800284FD10A980599079A069C401A22
:10181000801A041B9DF82C0041070FD42021002CB6
:101820008DF800100ADDA34601236A4601A9484647
:1018300000F085F9B8BBBBF1010BF5D1059B0CAAF3
:1018400001A9484600F07BF968BBDDF81CB03020E8
:10185000BBF1000F8DF8000009DD01236A4601A9E4
:10186000484600F06CF9F0B9BBF1010BF5D1069BCD
:10187000039A01A9484600F062F9A0B99DF82C002E
:1018800041077FF53BAF2021002C8DF800107FF73A
:1018900035AF01236A4601A9484600F050F910B956
:1018A000641EF6D12AE7384616E02A287FF44CAFAA
:1018B000DAF80020CAF8002052F8040BCAF8002019
:1018C00000280A9003D540420A9041F004016D1CA3
:1018D0004CE70000CBCCCC0C13B0BDE8F08F6228F5
:1018E0000ED0682819D1002A0A680A60106803D04F
:1018F000121D0A6000B217E0121D0A6080B217E0E4
:10190000002A0A680A60106803D0121D0A6040B2FB
:101910000AE0121D0A60C0B20AE0002A0A680A60E2
:10192000106803D0121D0A60C1177047121D0A60AB
:101930000021704770B51C460D46252CEE681146F7
:1019400000F08480582C37D0632C0ED0642C18BF44
:10195000692C14D06F2C2FD0702C49D0732C53D0FD
:10196000752C18BF782C27D076E02869421C2A6194
:101970000A680A6052F8043B0A60335476E095F82E
:101980002A000122FFF7ABFF0028286004D5286950
:10199000411C29612D210DE0288D810704D528697E
:1019A000411C29612B2105E0C0071CD52869411C79
:1019B00029612021315416E095F82A000022FFF712
:1019C0008EFF286095F8281008070CD5286850B1BC
:1019D00044F02001782906D1286930213154401C77
:1019E000411C29613454214628693044A86007E02D
:1019F0000868086050F8042B08602A60AE607821FF
:101A0000284600F035F831E00868086050F8044BCB
:101A10000860AC603CB900BF56A000F0C5F84FF0BC
:101A2000FF34201A70BD2E6A002E04D5204600F027
:101A3000DBF8044608E032460021204600F0F0F8CA
:101A4000002814BF041B34466C610FE02869411C58
:101A500029612521315409E02969481C2861252282
:101A60007254210002D0411C29613454002070BD01
:101A7000F0B402466F29D46808BF082605D041F0AB
:101A80002000782814BF0A26102618251768642914
:101A900018BF6929384602D1002F48BF4042F0B92B
:101AA000136AE3B9082E39D192F82800010735D519
:101AB00030201725E07531E000280ED592F8280077
:101AC00000F01400102808D1536A10691B1A90699D
:101AD0001B1A591A0129A8BF9161F0BC7047B0FBCD
:101AE000F6F706FB170030306D1EC3B23A2BA4BFC9
:101AF000A1F1510318186055380003D09368671995
:101B0000BB42ECD3082E09D192F82800010705D575
:101B1000615D302902D06D1E3020605560199060E3
:101B2000C5F11801106A51618142C5DA411A91610B
:101B30004FF6EF70118D01401185F0BC7047F8B57C
:101B400005460E4617461C46002074B117F8011BC7
:101B50007068A847706030B1F069401CF0610020E7
:101B6000641EF3D1F2BD4FF0FF30F2BD686C747AA1
:101B70004C0000007072696E74665F733A20626197
:101B80006420257320617267756D656E74000000B6
:101B90000278C9B28A421AB11CBF10F8012FF9E7C6
:101BA00018BF00207047FEE780B500B906A00549C0
:101BB0000B681BB122220021984701E000F05CF87D
:101BC000222002BD6C2B0120636F6E7374726169F9
:101BD0006E742068616E646C65723A206261642084
:101BE0006D6573736167650000F10103810704D0BF
:101BF00010F8011B89B18107FAD10268B2F10131F5
:101C0000914311F0803F04BF50F8042FF6E710F81D
:101C1000011B11B110F8011BFBE7C01A7047FEE76A
:101C2000C9B2830706D0521E22D310F8013B994255
:101C3000F7D11FE0083A13D302F1040241EA01216F
:101C400041EA014150F8043B121F21BF4B40A3F170
:101C5000013C2CEA030C1CF0803FF3D0C9B2001FFA
:101C6000083210F8013B521E28BF91EA030FF8D842
:101C700018BF0120401E7047012000F001B8FEE7A8
:101C800080B5AFF30080024A11001820ABBEFBE71D
:101C900026000200811DDFF8B40401430878C0B2B9
:101CA0007047801D50F090500078C0B27047801D82
:101CB00050F080500078C0B270478901001D50F08C
:101CC000985001707047801D50F098500078C0B255
:101CD000002801D0012000E00020C0B27047801D24
:101CE00050F094500078C0B2002801D0012000E0EC
:101CF0000020C0B27047801D50F084500078C0B200
:101D0000002801D0012000E00020C0B270472DE97A
:101D1000F04106004FF400773000FFF7BBFF80462C
:101D20003000FFF7BEFF0400701C50F084500578AF
:101D30003000FFF7D4FF5FFA88F8B8F1000F07D042
:101D4000B8F1020F1BD00DD3B8F1030F26D02DE050
:101D5000C0B2002805D1E4B2002C01D1082700E070
:101D6000012723E0E4B2012C08D1C0B2002805D13C
:101D7000EDB2002D01D1022700E0042716E0E4B205
:101D8000002C0AD1EDB2002D06D1C0B2002801D03E
:101D9000402702E0102700E0202707E0E4B2002CF3
:101DA00003D1C0B2002800D08027FFE7380000B27E
:101DB000BDE8F0812DE9F04105000E001700002478
:101DC0000020E91C51F09C5108702800FFF769FFC2
:101DD000002805D195F8038098F02000E8700124D0
:101DE000287810F03B0050F0040028702800FFF71E
:101DF00058FF0128FAD1E4B2002C01D085F8038005
:101E00002800FFF747FF0028FAD1E87810F09F007C
:101E1000710111F060010843E870E91CCC480143EE
:101E200008783100C0B2C9B28842F6D13800002823
:101E300000D0B8470020BDE8F0812DE9F041050051
:101E400090461E0000242800FFF72BFF012804D134
:101E5000EF7897F02000E8700124287810F0030054
:101E60005FEAC80818F0380858EA000885F80080CA
:101E7000681C50F088500078C0B2002804D02800B8
:101E8000FFF739FF0028FAD02800FFF70AFF0028E3
:101E9000FAD1E4B2002C00D0EF700699E87810F087
:101EA0001F0050EAC6104A0112F060021043E870A9
:101EB000EA1CA748024310780A00C0B2D2B290428E
:101EC000F6D12800FFF7E6FE0028FAD107980100B6
:101ED000002900D080470020BDE8F0812DE9F843BB
:101EE00005000E001700984600240020E91C51F060
:101EF0009C5108702800FFF7D4FE002805D195F802
:101F0000039099F02000E8700124287810F03B003D
:101F100050F0440028702800FFF7C3FE0128FAD1D2
:101F2000E4B2002C01D085F803903800C0B201283B
:101F300004D14146C9B2280000F0D2F9697811F005
:101F4000FC0117F00100014369702800FFF7AFFEA4
:101F50003900C9B28842F8D1E87810F09F007101C9
:101F600011F060010843E870E91C794801430878E2
:101F70003100C0B2C9B28842F6D12800FFF78AFE0C
:101F80000128FAD108980100002900D080470020DC
:101F9000BDE8F2832DE9F041050017001E00002482
:101FA0000020691D51F0985108702800FFF797FE36
:101FB0000028FAD10020691C51F0845108702800D3
:101FC000FFF76FFE012805D195F8038098F02000F7
:101FD000E8700124287810F00300FF0017F038079C
:101FE000074357F080072F702800FFF75AFE00289C
:101FF000FAD1E4B2002C01D085F80380681C50F0BF
:1020000088500078C0B2002804D02800FFF773FE83
:102010000028FAD00699E87810F01F0050EAC610A0
:102020004A0112F060021043E870EA1C484802437B
:1020300010780A00C0B2D2B29042F6D12800FFF761
:1020400029FE0228FAD107980100002900D0804714
:102050000020BDE8F08138B5040015002800C0B2AA
:10206000012803D1C9B2200000F03AF9617811F0DB
:10207000FE0115F00100014351F0020161702000E2
:10208000FFF715FE2900C9B28842F8D1002032BD01
:1020900080B50222431C53F084531A70C9B200F079
:1020A00091F8002002BD70B504000E001D00002054
:1020B000611C51F08451087080202649214308702A
:1020C0002000FFF7E7FD0228FAD13100C9B2200055
:1020D00000F078F800212000FFF7EFFD0020611DDF
:1020E00051F0985108702000FFF7F9FD0028FAD14F
:1020F0000498217911F0F80115F007050D432571B9
:10210000617911F0E00110F01F0008436071402078
:10211000611D51F0985108702000FFF7E0FD012883
:10212000FAD12000FFF7CFFD0028FAD0002070BDC3
:1021300010B5040000200749214308702000FFF774
:10214000A9FD0328FAD1002010BD000000001011E5
:102150000000901200001013811DDFF818030143E6
:102160000878C0B27047401C50F080500170704732
:10217000801D50F080500078C0B27047801D50F034
:1021800098500078C0B2002801D0012000E0002063
:10219000C0B27047801D50F094500078C0B2002843
:1021A00001D0012000E00020C0B27047801D50F037
:1021B00084500078C0B2002801D0012000E0002047
:1021C000C0B2704710B50400601C50F08850007811
:1021D000C0B2002804D02000FFF7E8FF0028FAD0A2
:1021E00010BDDFF8940200687047D140DBB2002BCD
:1021F00013D0D2B2002A052A04D9921F04D0521E4D
:1022000006D009E0490908E01420B1FBF0F104E030
:102210000C20B1FBF0F100E00021080070471CB574
:10222000040054F088500078C0B2002814D1200077
:10223000FFF7D7FF010054F08D500278631CDFF8E0
:102240003C0203431B780020C0B20090DBB2D2B244
:102250002000FFF7CAFF02E0DFF82402006816BD85
:1022600010B41000C0B2002805D048F2010081422D
:102270000AD3002012E047F61220081A41F68664BD
:10228000A04201D3002009E0DFF8F801DBB200EB47
:102290008300D2B230F812004143080010BC7047EE
:1022A00010B504002000FFF775FF002801D00020C2
:1022B00015E02000FFF7B3FF0100002901D1002045
:1022C0000DE0E01C50F09C500278E31CDFF8B801F0
:1022D00003431B78DBB2D2B22000FFF7C1FF10BD71
:1022E00038B504000D0014F1080050F08550007856
:1022F0002900C0B2C9B2884229D0601C50F0805079
:102300000078C0B2002808D1207A10F0D0006D000B
:1023100015F00E050543257219E000212000FFF796
:1023200022FF2000FFF724FF0028FAD1207A10F0C6
:10233000D0006D0015F00E05054325720121200027
:10234000FFF711FF2000FFF713FF0128FAD131BD7D
:1023500080B5FFF746FF02BD10B50400A01D50F088
:1023600094500078C0B2002808D1201D50F0985039
:102370000078C0B2002801D1002012E02000FFF751
:10238000E7FF211D51F081510978491CC9B2B0FB0A
:10239000F1F0611D51F0825109781031C9B2484302
:1023A000400810BD10B50400607910F0E00012F094
:1023B0001F0202436271207910F0D80050EA4310E6
:1023C00011F00701014351F0400121712000FFF796
:1023D000D5FE0028FAD010BD010051F084500078DD
:1023E000C0B2002801D1002010E0481C50F08050FD
:1023F0000078C0B2002802D12148006806E02348D6
:102400000068083151F085510978C840704710B50F
:1024100004002000FFF7A0FEC0B2002808D0022868
:102420000ED009D303280FD12000FFF795FF0CE051
:102430002000FFF735FF08E02000FFF7CDFF04E0A4
:102440002000FFF7CEFE00E0002010BD10B444785D
:1024500014F0C304090111F030012143D20012F03D
:10246000080211439B0013F004031943417010BC90
:1024700070470000000010116806002000001012D4
:10248000040000208437001000009012000000209B
:102490008901DFF8F422104301707047811DDFF8D5
:1024A000EC0201430878C0B27047490050F08450F4
:1024B0000170704750F0805001707047401C50F020
:1024C000805001707047801D50F080500078C0B27D
:1024D00070478901001D50F0985001707047801DB1
:1024E00050F084500078C0B2002801D0012000E0F4
:1024F0000020C0B27047C90150F09C500170704775
:10250000490150F09450017070478901821CDFF836
:10251000780202431170704747F2305100E000BF6B
:102520000800411E0028FAD1704738B50400002584
:10253000200000B2B0F5807F09DB4FF4437294496C
:10254000944800F033F9AFF3008000E06D1C2000E8
:1025500000B2E840C007F9D52800C0B232BD2DE96D
:10256000FC410400002500268C48FFF7D0FB00B298
:10257000FFF7DBFF8046B4F90000FFF7D6FF070046
:1025800087485FFA88F800EBC8003900C9B210F834
:1025900001804046C0B200280BD0022830D01AD3A8
:1025A000042821D00BD3062836D02FD3072850D0AB
:1025B00053E0794AE1797948FFF7FCFB4DE0764832
:1025C0000190E0790090237AA2792900C9B273487A
:1025D000FFF733FC41E00020009063792279E17934
:1025E0006E48FFF77BFC38E000200190E079009016
:1025F000237AA2792900C9B26848FFF7CBFC2CE006
:10260000227961796548FFF726FD26E02900C9B2E5
:102610006248FFF73DFD20E03800C0B2072803D034
:102620003800C0B206280AD1207B0090E37A32003D
:10263000D2B22900C9B25948FFF735FD08E002219E
:102640005648FFF725FF5548FFF728FF0228FAD123
:1026500003E05248FFF76CFDFFE740463900C0B287
:10266000C9B288428CD1A1784C48FFF71EFFE178AF
:102670004A48FFF71FFFA078002811D020790128D1
:1026800003D161794548FFF72BFE21794348FFF7D5
:1026900015FF4248FFF717FF2179C0B28142F8D1F8
:1026A000607A002806D0A37A227BE17A3B48FFF7C4
:1026B00079FE03E000213948FFF70BFF0020BDE859
:1026C000F68138B504000D00002C07D040F2FE3230
:1026D0002F49304800F06AF8AFF300800020A87A54
:1026E00001281FD12879002801D0082100E000210D
:1026F0006879002801D0042200E00022A87900288F
:1027000001D0022300E00023E879002801D0012055
:1027100000E00020114319430143224850F82400EF
:1027200000F056F815F10B01200000F016F8AB7A16
:102730002A7A697A1948FFF789FEA87A012807D111
:10274000E87A012804D11548FFF7C9FE0028FAD01D
:10275000286815490860002032BD38B504000D0016
:10276000A978104850F82400FFF7CFFE29780D48CB
:1027700050F82400FFF7BFFE69780A4850F824009B
:10278000FFF7BEFE31BD0000000010130000101165
:1027900070330010CC37001019250010004006409F
:1027A000A8350010EC3700106806002000B583B093
:1027B0000091019202906A4604491820ABBE00289D
:1027C00001D1FFF759FA03B000BD00BF101002009D
:1027D000027812F0F00211430170704730B4020029
:1027E000D2B2002A08D0022A2CD018D3042A4FD003
:1027F0003BD3052A5FD071E0DFF8A022126852F4C3
:102800008062DFF898321A604FF44072DFF890323D
:102810001A604FF44072DFF88C321A605EE0DFF825
:102820007C22126852F40062DFF870321A604FF4B2
:102830004072DFF874321A604FF44072DFF86C3285
:102840001A604BE0DFF85422126852F48052DFF82D
:102850004C321A604FF44072DFF854321A604FF471
:102860004072DFF850321A6038E0DFF83022126828
:1028700052F40052DFF824321A604FF44072DFF84D
:1028800038321A604FF44072DFF830321A6025E0B7
:10289000DFF82C22126852F48062DFF824321A60CA
:1028A0004FF40062DFF81C321A604FF40062DFF868
:1028B00018321A6012E0DFF80822126852F400623F
:1028C000DFF8FC311A604FF44072DFF800321A6012
:1028D0004FF44072DFF8F8311A60FFE7DFF8F421B7
:1028E0000300DBB252F82320D27812F0F302DFF8B3
:1028F000E4310400E4B253F82430DA70DFF8D42174
:102900000300DBB252F823209278DFF8C8310400CC
:10291000E4B253F824309A70DFF8BC211368DFF872
:10292000BC2153430A01B3FBF2F21400A4B2B4F584
:10293000005F01DB41F6FF72B3FBF1F3110089B2D6
:10294000B3EB0113DFF88C110400E4B251F824104A
:102950000C7814F0E004C2F304210C43DFF8741186
:102960000500EDB251F825100C70DFF86811040075
:10297000E4B251F824104A70DFF858110200D2B2C4
:1029800051F82210897A11F0E00113F01F030B4374
:10299000DFF840110200D2B251F822108B72DFF83A
:1029A00034110200D2B251F82210097C51F0880192
:1029B000DFF820210300DBB252F823201174DFF886
:1029C00014110200D2B251F82210C97851F00C0152
:1029D000DFF80021C0B252F82000C17030BC70474F
:1029E000DFF8F0100200D2B251F8221009798906FE
:1029F000F6D5DFF8E010C0B251F82000C07970477A
:102A0000344A0300DBB252F8232012791206F7D5BC
:102A1000304AC0B252F82000C171704780B5002022
:102A2000FFF7DEFF0100C9B20020FFF7E9FF01BD9B
:102A300080B50120FFF7D4FF0100C9B20120FFF7E4
:102A4000DFFF01BD80B50220FFF7CAFF0100C9B258
:102A50000220FFF7D5FF01BD80B50320FFF7C0FFBF
:102A60000100C9B20320FFF7CBFF01BD80B50221F1
:102A7000022000F049F80420FFF7B2FF0100C9B2BC
:102A80000420FFF7BDFF01BD80B50520FFF7A8FFBB
:102A90000100C9B20520FFF7B3FF01BD3480044037
:102AA0003C900440389004400CB0044010B0044006
:102AB00008C004400CC0044040B0044044B004408E
:102AC0002880044064D0044060D0044020C004400A
:102AD00024C00440200600207006002040420F0061
:102AE00080B50023012201216148FEF7F5FB002398
:102AF000012204215F48FEF7EFFB0023012207219A
:102B00005B48FEF7E9FB01BD80B5C0B2002808D0E4
:102B1000012824D002285ED003283ED0062878D091
:102B2000A5E00800C0B2002806D15148006830F086
:102B300002004F49086011E00800C0B2012806D128
:102B40004B48006850F002004949086006E0C9B2ED
:102B5000022903D101214648FEF702FC87E0080064
:102B6000C0B2002806D14348006830F01000414947
:102B7000086011E00800C0B2012806D13D48006895
:102B800050F010003B49086006E0C9B2022903D1A9
:102B900004213848FEF7E4FB69E00800C0B20028D1
:102BA00006D13548006830F400303349086011E040
:102BB0000800C0B2012806D12F48006850F4003048
:102BC0002D49086006E0C9B2022903D111212A4823
:102BD000FEF7C6FB4BE00800C0B2002806D127482C
:102BE000006830F000502549086011E00800C0B2CC
:102BF000012806D12148006850F000501F490860A4
:102C000006E0C9B2022903D11D211C48FEF7A8FB2A
:102C10002DE00800C0B200280CD11548006830F043
:102C20000200134908601348006830F01000114991
:102C300008601BE00800C0B201280CD10C480068F5
:102C400050F002000A4908600A48006850F010007D
:102C5000084908600AE0C9B2022907D104210548E1
:102C6000FEF77EFB01210248FEF77AFBFFE701BD7C
:102C7000C0F00F4080F00F4000F00F4000F10F4017
:102C8000017070477CB50600A2215248FFF7F8FF9B
:102C90005148D0E90023CDE9002300F08FF86946C0
:102CA0004C4800F0E2F84D48006850F478504B4929
:102CB00008603000C0B2002836D0F6B2012E0AD02B
:102CC000022E0ED0032E12D0042E16D0052E1AD0AE
:102CD000072E1ED023E004240E25414800F07FF982
:102CE00022E0042414253F4800F079F91CE0042474
:102CF00018253D4800F073F916E004241F253B48D1
:102D000000F06DF910E003241825394800F067F948
:102D10000AE003241C25374800F061F904E003248D
:102D20001C25344800F05BF92900C9B2103132206B
:102D30004143022091FBF0F02100C9B2491C90FBF5
:102D4000F1F02D4908602C48006840082B490860C4
:102D500080202B49087014F007042A4804702A4880
:102D600000682949096851F47021274A11602249F5
:102D700009681E22B1FBF2F1090411F4702151F02F
:102D80009871224A11602049086015F01F0555F01E
:102D900040051F4805701F4800788006FBD51D4878
:102DA00000784006FBD500201549087019480078C6
:102DB000C0B2C0F381000328F8D173BDF8B56846EE
:102DC0001549102200F04EF969460020FFF779FC02
:102DD00005B000BD00E00740DC370010388004403B
:102DE000F43600100C370010243700103C37001068
:102DF000543700106C3700106C060020700600205D
:102E0000004006400440064000F001404480044079
:102E100005400640064006409437001010B50400F7
:102E20000021621C594802431170200000F0B4F8E0
:102E30000128FAD110BD10B504004021621C53488E
:102E400002431170200000F0A7F80428FAD110BD49
:102E500010B504006021621C4C4802431170200030
:102E600000F09AF88028FAD110BD38B504000D00A2
:102E7000200000F091F8C0B2012804D0042809D045
:102E800080280FD01DE02878C00602D52000FFF76B
:102E9000D2FF16E0288810F4837F02D02000FFF7CD
:102EA000BDFF0EE0288840F20111084208D1200041
:102EB000FFF7B4FF2878C00602D52000FFF7BBFF5C
:102EC000FFE7B5F9000001280FD0022819D0042827
:102ED00021D008280DD0102813D020281BD08028FE
:102EE00019D0B0F5807F08D04DE02000FFF796FFA5
:102EF00049E02000FFF79FFF45E02000FFF7A8FF13
:102F000041E02348006830F00400214908606078FF
:102F1000009030BF37E069798901A21C1D48024347
:102F20001170A879C000A11C51F08C510870E8788C
:102F30004001A11C51F09451087028790001A11C96
:102F400051F090510870B5F90000042801D100201B
:102F50000BE0B5F90000202801D1022005E0042093
:102F6000A978A21C52F081521170611C51F081515C
:102F700008700748006850F0040005490860607850
:102F8000009030BFFFE7002032BD0000000090122B
:102F900010ED00E000001013C078704741F24401CA
:102FA0000144DFF8A40001430868C0B27047C9B209
:102FB0008904DFF898201043016070471CB50400B5
:102FC00020790090E378A2786178DFF8880000F03B
:102FD0008DF82178DFF87C00FFF7E9FF13BD1CB501
:102FE0000400002C08D1CE22DFF86C10DFF86C0052
:102FF000FFF7DCFBAFF300800720009007230122DE
:103000000021DFF8500000F071F82000FFF7A7FA68
:1030100014F11100FFF7D2FF14F10E010020FFF7A9
:103020009CFB00F005F8DFF838100860002016BDA2
:1030300010B50748FFF7EBF904000648FFF7AEFFAD
:10304000401CB4FBF0F010BD0000301E0000101951
:103050000040064000700440D0320010D437001009
:1030600038060020103A07D330B4B1E83810103ACF
:10307000A0E83810F9D230BC530724BFB1E80810DB
:10308000A0E8081044BF51F8043B40F8043BD207C5
:1030900024BF31F8022B20F8022B44BF0B780370B9
:1030A0007047121F17D35B0009D151F8043B20F879
:1030B000023B1B0C121F20F8023BF6D20BE051F82A
:1030C000043B00F8013B1B0A20F8023B1B0C121FBB
:1030D00000F8013BF3D238BF121D521E24BF11F875
:1030E000013B00F8013BF8D87047FEE730B4029C82
:1030F00041F244054559ADB2C9B255EA0175D2B2A3
:10310000120612F070622A43DBB21B0513F470033F
:103110001A43E4B2240414F47024224341F244011B
:10312000425030BC7047FEE7012210F01F018A4078
:103130002E4940B2400941F82020704780B52C4A02
:10314000126852F400022A4B1A602A4A1268920846
:103150009200284B1A6049F640425143264A030028
:10316000DBB21B01D15024490200D2B2120111443A
:10317000C96851F00101204A0300DBB21B011A4467
:10318000D1601D490200D2B212011144896851F088
:103190000301194A0300DBB21B011A44916030306D
:1031A00040B2FFF7C1FF01BD80B51448006850F080
:1031B00001001249086002210220FFF7A5FC01BDB1
:1031C0000F48006850F001000D49086070470C4836
:1031D000006850F001000A4908607047094800681B
:1031E00050F00100074908607047000000E100E06E
:1031F0003C80044000700340007103400C710340A8
:103200001C7103403C710340BFF34F8FBFF36F8FBE
:103210000020274908602748006850F400302549FD
:103220000860BFF34F8FBFF36F8F704710B400205B
:1032300021490860BFF34F8F20480168C1F34E3227
:10324000C1F3C90343F6E07010EA421050EA8370FC
:103250001B4C20601800431E0028F3D11000421EB2
:103260000028EDD1BFF34F8F1248006850F4803032
:1032700010490860BFF34F8FBFF36F8F10BC7047CA
:1032800080B51048006850F470000E4908604CF298
:1032900020500D4908804DF628100B4908804FF446
:1032A000E9700A490880FFF7AFFFFFF7BFFF01BDD4
:1032B00050EF00E014ED00E084ED00E080ED00E070
:1032C00060EF00E088ED00E00E20054000200540A2
:1032D000443A5C50726F6A6563745C4D656E7461EC
:1032E0006C6C7920726574617264656420636172CC
:1032F0005C4C515F4B563538463234204F56373789
:10330000323520544654312E38E5AFB8E5B18F52EE
:103310004742353635E698BEE7A4BA2831295C4CD9
:10332000515F4B563538463234204F563737323599
:1033300020544654312E38E5AFB8E5B18F5247429C
:10334000353635E698BEE7A4BA5C4C5175736572A4
:103350005C73797374656D5C66736C5F636C6F63CB
:103360006B5F4D4B5635384632342E6300000000FB
:10337000443A5C50726F6A6563745C4D656E74614B
:103380006C6C79207265746172646564206361722B
:103390005C4C515F4B563538463234204F563737E8
:1033A000323520544654312E38E5AFB8E5B18F524E
:1033B0004742353635E698BEE7A4BA2831295C4C39
:1033C000515F4B563538463234204F5637373235F9
:1033D00020544654312E38E5AFB8E5B18F524742FC
:1033E000353635E698BEE7A4BA5C4C517573657204
:1033F0005C73797374656D5C66736C5F636C6F632B
:103400006B5F6D616E616765722E63002DE9FC4D27
:10341000016800F10805490805EBC102019200F1BD
:103420000802406800F0010A02EBC108400808EBFE
:10343000C00B00200021019A95422FD02A68AE18B7
:103440006A68324400920835009A9642F3D016F921
:10345000014B009A964205D12A68AE186A68324438
:103460000092083516F8017B884210D1D84508BF74
:10347000FEF702FCD8F80000D8F80410BAF1000FEB
:1034800018BF48440144884208F10808EED0002CD7
:1034900000F8017B05D5641CE6D1D5E75846BDE8A8
:1034A000F68D641ED5D5CFE780B50520FFF7EAFB82
:1034B000FFF716FB5FF4E1310520FFF78FF9FDF709
:1034C00025FCFDF71FF81E210020FFF737FE6421C1
:1034D0000120FFF733FE0020FDF725FE62B6012133
:1034E0000620FFF711FB0B48006850F080000949E7
:1034F0000860094800780028FBD0084800904B235A
:103500007D221B211420FCF7CBFF0020024908700C
:10351000EFE700BFC0F00F40712B012074060020C0
:1035200080B50E4801680E480068800714D5002950
:1035300012D0D1E90423521C73F1FF33C1E90423F3
:103540008869002808D0486A002802D00120086253
:1035500002E0C8698969884701BD0000640600204F
:1035600010E000E00C480D49884210D0002006E031
:103570000A4951F82010084A42F82010401C084916
:10358000B0EB910FF4D304480649086002E0034809
:1035900004490860704700BF0000001000000010E0
:1035A0000000000008ED00E0000101030404040431
:1035B00000010203040404040101020101010101EC
:1035C00000010103040404040001010304050606CC
:1035D00004040404040506060404040404050607A0
:1035E000060606060606060619E050F8042BD30761
:1035F00044BFA9F101039A18091F0023042942F8C6
:10360000043BF9D25FEA817C134604D54FF0000CED
:10361000A2F800C09B1CC90744BF0021197050F8D4
:10362000041B0029E1D1704710B5074979441831CE
:10363000064C7C44163404E00A68081D114488478F
:103640000146A142F8D110BD2C000000540000003A
:103650004EF68851CEF20001086840F47000086010
:10366000BFF34F8FBFF36F8F4FF00070E1EE100A82
:103670007047000075FFFFFF102501006406002061
:103680000000000089FDFFFF0200000002000000B2
:1036900064010000470400000000002064060000F0
:1036A000FEE7000000F00DF8002801D0FFF7BCFF96
:1036B000AFF300800020AFF30080FFF7F5FE00F0CD
:1036C00002F80120704700F001B8FEE707463846CF
:1036D000FEF7D6FAFBE7FEE772B6034880470348D9
:1036E000804762B6024800478132001065350010FD
:1036F000C137001080000100000006000000000338
:103700000800010000030001010500008000010025
:103710000000030000000004140001000003000189
:103720000207000080000100000003000000000408
:1037300018000100000300010207000080000100E2
:1037400000000300000000041F000100000300014E
:1037500003090000800001000000030000000003D6
:1037600018000100000300010309000080000100AF
:1037700000000600000000031C000100000300011F
:10378000030900008002DC020005B80580079508E7
:10379000000A710B80F0FA02000000000002000035
:1037A0000000000080B5FFF7BBFEBFF34F8FBFF3F3
:1037B0006F8F01BD4F5637373235204F4B00000019
:1037C000AFF30080FFF744FFFFF76CFF746573747D
:1037D0000000000074657374000000000001000028
:1037E0000000000025303364000000000050064057
:1037F000FFF7FEBF0500093D000080EC00F8100354
:1038000000001010FC00FC24F400FD4800FEFB2426
:10381000007FFD120F0000107C929212141830509D
:103820009092927C10FD000B8C9252322C10086802
:1038300094929260FC000018FD24071898A4A242FC
:1038400042A29CFC00FC10F5000320100808FA04BA
:103850000908081020000004081010FA20031010B6
:103860000804FA0004082A1C1422F600FD1000FEC9
:10387000FD10EF0002101008F80000FEEC00FE1032
:10388000FC000B404020201010080804040202FC39
:1038900000013844F882014438FC0001101CF61085
:1038A000FC000B3C424240402010080402027EFC17
:1038B00000053C424240403CFD400242423CFC008C
:1038C000086060505048484444FEFD40FC00007EC3
:1038D000FD02013E42FD400242423CFC00053C42EA
:1038E0004202023EFB42003CFC00037E402020FDE1
:1038F00010FB08FC00003CFC42003CFB42003CFC8E
:1039000000003CFB42057C404042423CFA00FE087D
:10391000FC00FE08F800FE10FC00FD100008FB0093
:1039200008403008060106083040F60003FE00009B
:10393000FEF70008020C10608060100C02FA00050F
:10394000384482824020FD1002001010FC00033831
:103950004482B2FCAA03D2028478FC00FD10FD2848
:103960000244447CFD82FC00063E428282423E428A
:10397000FD8201423EFC000338448282FC02038245
:10398000824438FC00023E4242FA820242423EFC3D
:103990000000FEFC02007EFB0200FEFC0000FEFCBC
:1039A00002007EFA02FC0002384482FD0200E2FDC1
:1039B0008201C4B8FC00FB8200FEFA82FC00F41015
:1039C000FC00F7200222221CFC000B824222120A79
:1039D00006060A12224282FC00F502007EFC000567
:1039E0008282C6C6AAAAFD92FD82FC000B82868650
:1039F0008A8A9292A2A2C2C282FC00013844F88252
:103A0000014438FC00013E42FD8201423EFB02FCC3
:103A100000013844F98202A244B8FC00013E42FD94
:103A20008202423E42FC82FC000B7C82820204182D
:103A300020408082827CFC0000FEF510FC00F582B4
:103A4000007CFC00FD82FD44FD28FD10FC00FB9283
:103A5000FDAAFC44FC000B82824444281028284420
:103A6000448282FC0005828244442828FA10FC002B
:103A70000B7E402020101008080404027EFD000088
:103A800078F4080078FD00FD9201FF92FDAAFC4445
:103A9000FD00001EF410051E0000102844E600057D
:103AA000FE0000040810EE00033C42407CFD420092
:103AB000BCFC00FC02013A46FC8201463AF80001D7
:103AC0007884FC02018478FC00FC8001B8C4FC828C
:103AD00001C4B8F80007384482FE02028478FC0072
:103AE0000070FD08007EF908F800015864FD4203EB
:103AF0006458423CFD00FC02013A46FA42FC0003D5
:103B000010100000F810FC000310100000F8100066
:103B10000CFD00FD02084222120A060A122242FC93
:103B200000F410F800006EF992F800013A46FA42EB
:103B3000F800013844FC82014438F800013A46FD9F
:103B40008203463A0202F90001B8C4FD8203C4B8F8
:103B50008080F90001740CFA04F800073C42020C62
:103B60003040423CFC00FC08007EFA080070F8007F
:103B7000F942007CF800078282444428281010F89B
:103B8000000082FD9203AA6C4444F8000782442896
:103B90001010284482F8000882824444282810101B
:103BA0000EF900077E4020100804027EFD00006030
:103BB000FB10000CFA1002600000F2100200000678
:103BC000FB080030FA080006F900018C72F700606B
:103BD000F00F4040F00F4080F00F40C0F00F400069
:103BE000F10F400090044000A0044000B0044000E9
:103BF000C0044000D0044000A0064000B0064000D1
:103C0000C0064000D0064000A00E4000B00E4000AC
:103C1000004001074A0300DBB25B011A4411610551
:103C2000490968012212FA00F0084302490860704D
:0B3C300047FD00069000400C800040A3
:04000005100037C1EF
:00000001FF
