:1000000000000220BD5C00005F2500001B2F0000E7
:10001000332F0000AB2F00000B3000000000000069
:10002000000000000000000000000000EB4F000096
:100030007F56000000000000BB560000A95D0000D4
:100040007D5E00007D5E00007D5E00007D5E000044
:100050007D5E00007D5E00007D5E00007D5E000034
:100060007D5E00007D5E00007D5E00007D5E000024
:100070007D5E00007D5E00007D5E00007D5E000014
:100080007D5E00007D5E00007D5E00007D5E000004
:100090007D5E00007D5E00007D5E00007D5E0000F4
:1000A0007D5E00007D5E00007D5E00007D5E0000E4
:1000B0003D4A00007D5E00007D5E0000D1490000E9
:1000C0007D5E0000E54900007D5E0000F94900000A
:1000D0007D5E00007D5E00007D5E00007D5E0000B4
:1000E0007D5E00007D5E00007D5E00007D5E0000A4
:1000F0000D4A00007D5E0000214A00007D5E000088
:100100003D5700007F57000097570000A55700009B
:100110007D5E00007D5E00007D5E00007D5E000073
:100120007D5E00007D5E0000511200007D5E0000DB
:100130008B1100007D5E0000991800007D5E0000BC
:100140007D5E00007D5E00007D5E00007D5E000043
:100150007D5E00007D5E00007D5E00007D5E000033
:100160007D5E00007D5E00007D5E00007D5E000023
:100170007D5E00007D5E00007D5E00007D5E000013
:1003F0007D5E00007D5E00007D5E0000FFFFFFFF70
:1004000080B50FF2F90000F015F80FF2297000F036
:1004100011F80FF2214000F00DF80FF2191000F062
:1004200009F8DFF8080A00F005F8DFF8080A00F01C
:1004300001F801BDDFF8F819DFF8FC29B2F9002056
:1004400041F82200DFF8F0090088401CDFF8E819C5
:100450000880704780B5012000F076FE002811D199
:10046000642000F0CFFE012000F06EFE00281FD1B6
:10047000DFF8640B0088401EDFF85C1B088000F08A
:10048000BBFF15E0032000F05FFE002810D16420C0
:1004900000F0B8FE032000F057FE002808D1DFF876
:1004A000380B0088401CDFF8301B088000F0A4FFE8
:1004B000DFF8240BB0F90000002806D5DFF8780932
:1004C0000088401EDFF8101B0880DFF80C0BB0F925
:1004D0000000DFF86419B1F9001090FBF1F201FBA4
:1004E0001200DFF8F41A0880DFF84409DFF8E81A90
:1004F000B1F9001050F82100804701BD80B501F02E
:1005000063F901F0A0FBDFF83C290021002001F095
:1005100070F8DFF834090278DFF83019DFF8880B5B
:1005200001F04EFEDFF8802B0121642001F028F855
:1005300001BD000080B5022000F006FE002810D1A9
:10054000642000F05FFE022000F0FEFD002808D1CC
:10055000DFF8580B0088401CDFF8501B088000F0C3
:100560004BFFDFF8480BB0F90000042190FBF1F2DB
:1005700001FB1200DFF8341B0880042000F0E4FDCA
:10058000002855D1642000F03DFE042000F0DCFD81
:10059000002840F0A680DFF8140BB0F90000002816
:1005A0000ED1DFF8380AD0E90223DFF8340ADFF889
:1005B000341A01F025FEDFF8242AC2E9020190E096
:1005C000DFF8E80AB0F9000001280ED1DFF80C0AC4
:1005D000D0E90423DFF8080ADFF8081A01F010FE5A
:1005E000DFF8F829C2E904017BE0DFF8C00AB0F9BE
:1005F000000002280ED1DFF8E409D0E90623DFF875
:10060000E009DFF8E01901F0FBFDDFF8D029C2E9CD
:10061000060166E0DFF8940AB0F90000032860D113
:10062000DFF8B80900680A30DFF8B019086058E050
:10063000002000F089FD002853D1642000F0E2FD85
:10064000002000F081FD00284BD1DFF8600AB0F9EE
:10065000000000280ED1DFF88409D0E90223DFF87A
:100660008009DFF84C1A01F0CBFDDFF87029C2E9F0
:10067000020136E0DFF8340AB0F9000001280ED19B
:10068000DFF85809D0E90423DFF85409DFF8201A0D
:1006900001F0B6FDDFF84429C2E9040121E0DFF8EA
:1006A0000C0AB0F9000002280ED1DFF83009D0E9B9
:1006B0000623DFF82C09DFF8F81901F0A1FDDFF8B7
:1006C0001C29C2E906010CE0DFF8E009B0F90000DE
:1006D000032806D1DFF8040900680A38DFF8FC189F
:1006E0000860DFF8F808D0E902230020DFF8C41919
:1006F00001F042FE01F016FFDFF8BC190880DFF8B8
:10070000B809B0F90020DFF8B419DFF89C0901F04E
:1007100057FDDFF8942902210A2000F06AFFDFF874
:10072000BC08D0E904230020DFF8881901F024FE7A
:1007300001F0F8FEDFF880190880DFF87C09B0F9D5
:100740000020DFF87C19DFF8600901F039FDDFF8DF
:10075000582904210A2000F04CFFDFF88008D0E976
:1007600006230020DFF84C1901F006FE01F0DAFE46
:10077000DFF844190880DFF84009B0F90020DFF8FD
:100780004419DFF8240901F01BFDDFF81C290621BC
:100790000A2000F02EFFDFF844080268DFF828196D
:1007A000DFF8040901F00CFDDFF8FC2804215020DB
:1007B00000F01FFFDFF81409B0F90020DFF8081976
:1007C000DFF8E40801F0FCFCDFF8DC28062150200B
:1007D00000F00FFFDFF8F8280021002000F009FFEB
:1007E000DFF8F0280221502000F003FFDFF8BC08FA
:1007F000B0F90000401C400008280BDA0CA2DFF81A
:10080000AC080088401CC0B24100C9B2002000F012
:10081000F0FE0BE006A2DFF89408B0F900004000FB
:10082000801E0100C9B2462000F0E3FE01BD0000B9
:100830003E00000080B5022000F086FC002810D1A8
:10084000642000F0DFFC022000F07EFC002808D1CC
:10085000DFF858080088401CDFF85018088000F0C6
:10086000CBFDDFF84808B0F90000042190FBF1F25D
:1008700001FB1200DFF834180880042000F064FC4B
:10088000002855D1642000F0BDFC042000F05CFC81
:10089000002840F0A680DFF81408B0F90000002816
:1008A0000ED1DFF83408D0E90223DFF83407DFF88F
:1008B000341701F0A5FCDFF82028C2E9020190E01E
:1008C000DFF8E807B0F9000001280ED1DFF80808CA
:1008D000D0E90423DFF80807DFF8081701F090FCDF
:1008E000DFF8F427C2E904017BE0DFF8C007B0F9C4
:1008F000000002280ED1DFF8E007D0E90623DFF878
:10090000E006DFF8E01601F07BFCDFF8CC27C2E957
:10091000060166E0DFF89407B0F90000032860D113
:10092000DFF8B40700680A30DFF8AC17086058E059
:10093000002000F009FC002853D1642000F062FC84
:10094000002000F001FC00284BD1DFF86007B0F96F
:10095000000000280ED1DFF88007D0E90223DFF87D
:100960008006DFF84C1701F04BFCDFF86C27C2E97A
:10097000020136E0DFF83407B0F9000001280ED19B
:10098000DFF85407D0E90423DFF85406DFF8201716
:1009900001F036FCDFF84027C2E9040121E0DFF86E
:1009A0000C07B0F9000002280ED1DFF82C07D0E9BF
:1009B0000623DFF82C06DFF8F81601F021FCDFF83B
:1009C0001827C2E906010CE0DFF8E006B0F90000E4
:1009D000032806D1DFF8000700680A38DFF8F816A8
:1009E0000860DFF8F406D0E902230020DFF8C4161F
:1009F00001F0C2FC01F096FDDFF8BC160880DFF8BC
:100A0000B806B0F90020DFF8B416DFF89C0601F054
:100A1000D7FBDFF8942602210A2000F0EAFDDFF878
:100A2000B806D0E904230020DFF8881601F0A4FC02
:100A300001F078FDDFF880160880DFF87C06B0F959
:100A40000020DFF87C16DFF8600601F0B9FBDFF864
:100A5000582604210A2000F0CCFDDFF87C06D0E9FE
:100A600006230020DFF84C1601F086FC01F05AFD49
:100A7000DFF844160880DFF84006B0F90020DFF800
:100A80004416DFF8240601F09BFBDFF81C26062144
:100A90000A2000F0AEFDDFF840060268DFF82816F5
:100AA000DFF8040601F08CFBDFF8FC250421502060
:100AB00000F09FFDDFF82406B0F90020DFF80816EB
:100AC000DFF8E40501F07CFBDFF8DC25062150208F
:100AD00000F08FFDDFF808260021002000F089FDDE
:100AE000DFF8F0250221502000F083FDDFF8BC057F
:100AF000B0F90000401C400008280BDA0CA2DFF817
:100B0000AC050088401CC0B24100C9B2002000F012
:100B100070FD0BE006A2DFF89405B0F9000040007C
:100B2000801E0100C9B2462000F063FD01BD000037
:100B30003E00000080B5022000F006FB002810D126
:100B4000642000F05FFB022000F0FEFA002808D1CC
:100B5000DFF858050088401CDFF85015088000F0C9
:100B60004BFCDFF84805B0F90000042190FBF1F2DE
:100B700001FB1200DFF834150880042000F0E4FACD
:100B8000002855D1642000F03DFB042000F0DCFA81
:100B9000002840F0A680DFF81405B0F90000002816
:100BA0000ED1DFF84005D0E90223DFF83404DFF886
:100BB000341401F025FBDFF82C25C2E9020190E096
:100BC000DFF8E804B0F9000001280ED1DFF81405C1
:100BD000D0E90423DFF80804DFF8081401F010FB63
:100BE000DFF80025C2E904017BE0DFF8C004B0F9BA
:100BF000000002280ED1DFF8EC04D0E90623DFF86C
:100C0000E003DFF8E01301F0FBFADFF8D824C2E9D3
:100C1000060166E0DFF89404B0F90000032860D113
:100C2000DFF8C40400880A30DFF8BC14088058E0FC
:100C3000002000F089FA002853D1642000F0E2FA85
:100C4000002000F081FA00284BD1DFF86004B0F9F1
:100C5000000000280ED1DFF88C04D0E90223DFF871
:100C60008003DFF84C1401F0CBFADFF87824C2E9F6
:100C7000020136E0DFF83404B0F9000001280ED19B
:100C8000DFF86004D0E90423DFF85403DFF8201410
:100C900001F0B6FADFF84C24C2E9040121E0DFF8E4
:100CA0000C04B0F9000002280ED1DFF83804D0E9B6
:100CB0000623DFF82C03DFF8F81301F0A1FADFF8C0
:100CC0002424C2E906010CE0DFF8E003B0F90000DB
:100CD000032806D1DFF8100400880A38DFF808146A
:100CE0000880DFF80004D0E902230020DFF8C413F5
:100CF00001F042FB01F016FCDFF8BC130880DFF8BE
:100D0000B803B0F90020DFF8B413DFF89C0301F05A
:100D100057FADFF894230221142000F06AFCDFF870
:100D2000C403D0E904230020DFF8881301F024FB7A
:100D300001F0F8FBDFF880130880DFF87C03B0F9DE
:100D40000020DFF87C13DFF8600301F039FADFF8E8
:100D500058230421142000F04CFCDFF88803D0E96C
:100D600006230020DFF84C1301F006FB01F0DAFB4C
:100D7000DFF844130880DFF84003B0F90020DFF803
:100D80004413DFF8240301F01BFADFF81C230621CB
:100D9000142000F02EFCDFF85413DFF80C0301F0F0
:100DA0000FFADFF804230221502000F022FCDFF8C4
:100DB0003803B0F90020DFF81013DFF8EC0201F07F
:100DC000FFF9DFF8E4220421502000F012FCDFF8E4
:100DD0002003B0F90020DFF8F012DFF8CC0201F0B8
:100DE000EFF9DFF8C4220621502000F002FCDFF802
:100DF00004230021002000F0FCFBDFF8B002B0F972
:100E00000000032805D10DA20421462000F0F1FBCB
:100E10000AE00BA2DFF894020088401CC0B2410037
:100E2000C9B2002000F0E5FB01BD0000510E00003A
:100E300058870020E90F00009A8700203E0000003C
:100E40002D3E0000885D0000A2870020205E00008B
:100E50001CB56846A849D1E90023C0E90023042055
:100E600000F072F900280DD1642000F0CBF90420C5
:100E700000F06AF900281FD18C480088401C8B497B
:100E8000088019E0002000F05FF9002814D16420E8
:100E900000F0B8F9002000F057F900280CD1834881
:100EA0000088401E814908808048B0F90000002871
:100EB00002D505207D49088000F09EFA7B48B0F9F4
:100EC000000005230A22032190FBF3F403FB140026
:100ED0006B46185C01F091FB7449B1F900200521C3
:100EE00080B2030092FBF1F001FB102283496E48AF
:100EF00001F066F96C4A0021002000F07AFB6B4893
:100F0000B0F90000401C05230A22032190FBF3F4F2
:100F100003FB14006B46185C01F06FFB6349B1F9E9
:100F20000020521C052180B2030092FBF1F001FB6E
:100F3000102272495C4801F043F95B4A022100200B
:100F400000F057FB5948B0F90000801C05230A2225
:100F5000032190FBF3F403FB14006B46185C01F0D3
:100F60004CFB5249B1F90020921C052180B20300CC
:100F700092FBF1F001FB102260494B4801F020F98F
:100F8000494A0421002000F034FB4848B0F9000031
:100F9000C01C05230A22032190FBF3F403FB140079
:100FA0006B46185C01F029FB4049B1F90020D21CC6
:100FB000052180B2030092FBF1F001FB10224F49A2
:100FC000394801F0FDF8384A0621002000F011FBF5
:100FD0000A2000F017F913BD94870020F0020020CA
:100FE000FCA9F1D24D62503F2DE9FC4768464449C7
:100FF000D1E90023C0E900230A2203219DF8030060
:1010000001F0FBFA80460A2203219DF8000001F05E
:10101000F4FA81460A2203219DF8020001F0EDFA5C
:1010200082460A2203219DF8010001F0E6FA04003D
:101030000A2203219DF8030001F0DFFA05000A22CD
:1010400003219DF8000001F0D8FA06000A220321CE
:101050009DF8020001F0D1FA07000A2203219DF851
:10106000010001F0CAFA1FFA88F81FFA89F9B8EBF3
:10107000090818FA8AF1A4B20C1B42F210714C4311
:10108000B6B216FA85F111FA87F111FA80F094FBE5
:10109000F0F21C49044801F093F8034A03210020B0
:1010A00000F0A7FABDE8F3877C8700209687002030
:1010B0004D6250BF00408F4098870020285E00009E
:1010C000305E0000385E0000405E00009287002025
:1010D000C85D0000485E0000C80200209087002024
:1010E000D45D0000A002002098020020505E0000A5
:1010F0009C870020985D0000585E0000E05D0000C5
:10110000605E0000685E000080B5012300220721B8
:101110003A4801F0A9FA012300220821374801F0DA
:10112000A3FA012300220921344801F09DFA01238A
:1011300000220C21314801F097FA012300220D21F1
:101140002E4801F091FA01BD80B5C0B2002806D04A
:1011500002280CD007D3042811D00CD313E0472069
:1011600001F0CDFA10E0482001F0C9FA0CE0492066
:1011700001F0C5FA08E04C2001F0C1FA04E04D206E
:1011800001F0BDFA00E0FF2002BD80B514201C492B
:101190000968C140C9070BD519490968012212FA2B
:1011A00000F00843164908600221002001F00CFB02
:1011B000152013490968C140C9070BD510490968B2
:1011C000012212FA00F008430D49086002210120B3
:1011D00001F0FAFA16200A490968C140C9070BD57F
:1011E00007490968012212FA00F00843044908601F
:1011F0000221022001F0E8FA01BD000080F00F405A
:10120000A0A0044080B580B200F001F801BD01004B
:1012100089B200291BD01249096851F00101104A16
:10122000116000210F4A116080B21049086005204A
:101230000D49086001200B4908600A480068000653
:10124000FBD5084800684008400006490860704720
:101250000448006850F080000249086070470000B0
:1012600038800440000004400400044008000440AA
:1012700001000822DFF8FC05006850F48010DFF858
:10128000F4351860DFF8EC05006830F08040DFF8D6
:10129000E435186000BF00BF00BF00BF00BF00BF43
:1012A00026E0DFF8D005006830F00050DFF8C435E4
:1012B000186009E00806F4D5DFF8B805006850F0BA
:1012C0000050DFF8B0351860DFF8A805006850F06E
:1012D0008040DFF8A035186000BF00BF00BFDFF816
:1012E0009405006830F08040DFF8883518604900C8
:1012F0001000421EC0B20028DCD170470100082255
:10130000DFF87005006830F48010DFF86835186089
:10131000DFF86005006830F08040DFF8583518606D
:1013200000BF00BF00BF00BF00BF00BF29E0DFF863
:101330004405006830F00050DFF83835186009E0E7
:101340000806F4D5DFF82C05006850F00050DFF8EF
:1013500024351860DFF81C05006850F08040DFF885
:101360001435186000BF00BF00BF00BF00BF00BF42
:10137000DFF80005006830F08040DFF8F8341860CE
:1013800049001000421EC0B20028D9D1704710B5E4
:101390000400B1F15000C0B2FFF7B0FF2000C0B2AE
:1013A000000950F01000C0B2FFF7A8FF14F00F04BE
:1013B0002000FFF7A3FF10BD70B50400002509E071
:1013C0002000C0B2FFF754FF761C3000C0B2842862
:1013D000F6DB6D1C2800C0B208280CDAB5F150000D
:1013E000C0B2FFF78BFF0120FFF788FF1020FFF747
:1013F00085FF0026E9E770BD38B5002408E000202D
:10140000FFF736FF6D1C2800C0B28428F7DB641C90
:101410002000C0B208280CDAB4F15000C0B2FFF7C7
:101420006DFF0120FFF76AFF1020FFF767FF00251F
:10143000E9E731BD80B5012301221E21DFF8340424
:1014400001F012F9012301221D21DFF8280401F027
:101450000BF9012301221521DFF8180401F004F92A
:10146000012301221421DFF80C0401F0FDF801230F
:1014700001221321DFF8FC0301F0F6F80520FFF745
:10148000C1FEDFF8F003006850F08040DFF8E4139D
:101490000860DFF8E003006830F40020DFF8D413C0
:1014A0000860DFF8D003006830F40010DFF8C413E0
:1014B00008603220FFF7A6FEDFF8B803006850F49A
:1014C0000010DFF8B0130860AE20FFF717FF002010
:1014D000FFF714FF1020FFF711FF4020FFF70EFF6A
:1014E0008120FFF70BFFCF20FFF708FFA120FFF7B8
:1014F00005FFC820FFF702FFA620FFF7FFFEA82088
:10150000FFF7FCFE3F20FFF7F9FED320FFF7F6FEC2
:101510000020FFF7F3FED520FFF7F0FE8020FFF755
:10152000EDFED920FFF7EAFEF120FFF7E7FEDA2013
:10153000FFF7E4FE1220FFF7E1FEDB20FFF7DEFEFF
:101540004020FFF7DBFE2020FFF7D8FE0220FFF748
:10155000D5FE8D20FFF7D2FE1420FFF7CFFEA4208A
:10156000FFF7CCFEA620FFF7C9FEAF20FFF7C6FEAF
:101570000020FFF721FF00210020FFF708FF01BD39
:101580002DE9F84304000D0016000020002000277C
:1015900014E0DFF8E4124A46D2B20620424301EBDF
:1015A00002004146C9B2405CFFF762FE18F1010833
:1015B0004046C0B20628ECDBA41D7F1C3800C0B238
:1015C000305C002813D03800C0B2305CB0F1200984
:1015D0002000C0B27F2801DB00246D1C2900C9B2A5
:1015E0002000C0B2FFF7D3FE5FF00008E0E7BDE8DF
:1015F000F1832DE9F84304000D00160000200020BF
:10160000002712E0DFF874024146C9B2090151FA1D
:1016100089F10844007AFFF72BFE19F101094846C9
:10162000C0B20828EEDB08347F1C3800C0B2305C42
:1016300000282CD03800C0B2305CB0F12008200067
:10164000C0B2792801DB00246D1C2900C9B220003A
:10165000C0B2FFF79CFE5FF000090BE0DFF81C0250
:101660004146C9B2090151FA89F1405CFFF700FE19
:1016700019F101094846C0B20828EFDB691CC9B25C
:101680002000C0B2FFF783FE5FF00009C7E7BDE8A6
:10169000F1832DE9F84304000D0016000020002717
:1016A00001200AE00020FFF7E3FD18F101084046A1
:1016B000C0B21028F6DB0E34BF1C3800C0B2305C5C
:1016C000002800F07F8000215FF0010800E0891C05
:1016D000DFF8AC010A00D2B2805C802819DBDFF8A9
:1016E000A0010A00D2B2805C3A00D2B2B25C904251
:1016F000EDD1DFF88C010A00D2B2104440783A00F4
:10170000D2B2324452789042E1D1C9B20E20414364
:1017100088462000C0B2772801DB00246D1C290018
:10172000C9B22000C0B2FFF732FEB8F1010F2DD0D0
:101730002900C9B22000C0B2FFF729FE5FF00009FE
:1017400009E0DFF8400110F80800FFF791FD18F1FB
:10175000010819F101094846C0B20E28F1DB691CE5
:10176000C9B22000C0B2FFF712FE5FF00009484680
:10177000C0B20E289FDADFF80C0110F80800FFF75E
:1017800077FD18F1010819F10109F0E77F1C290024
:10179000C9B22000C0B2FFF7FAFD5FF0000804E014
:1017A0000020FFF765FD18F101084046C0B210287F
:1017B000F6DB691CC9B22000C0B2FFF7E8FD5FF09C
:1017C000000874E7BDE8F18380B502211020FFF71F
:1017D000DEFDFF20FFF74CFD03211020FFF7D7FDB2
:1017E000FF20FFF745FD04211020FFF7D0FDFF206B
:1017F000FFF73EFD05211020FFF7C9FDFF20FFF791
:1018000037FD06211020FFF7C2FDFF20FFF730FD56
:1018100007211020FFF7BBFDFF20FFF729FD022164
:101820007020FFF7B4FDFF20FFF722FD0321702099
:10183000FFF7ADFDFF20FFF71BFD04217020FFF730
:10184000A6FDFF20FFF714FD05217020FFF79FFD87
:10185000FF20FFF70DFD06217020FFF798FDFF2008
:10186000FFF706FD07217020FFF791FDFF20FFF72E
:10187000FFFC01BD00F10F40EC4F000058360000A6
:10188000F45B0000944A0000DFF800F03102002011
:10189000DFF800F04D00002080B5DFF8BC070068DD
:1018A000800425D5DFF8B007006850F40050DFF859
:1018B000A8170860DFF8A4070078792804DB002067
:1018C000DFF89817087029E0BC22DFF89417DFF8DA
:1018D0008C070378BC20434319440420FFF7D4FF4E
:1018E000DFF878070078401CDFF87017087015E003
:1018F000DFF864070068400410D5DFF85C07006873
:1019000050F48040DFF8501708600020DFF84C17D3
:1019100008700120DFF8C0170870FFE701BDF8B5B7
:101920000020ADF80C0009220D21DFF8B00700F00F
:10193000F4FE8A220E21DFF8A40700F0EEFE002359
:1019400000220021DFF8940700F08EFE0023002221
:101950000121DFF8880700F087FE00230022022122
:10196000DFF8780700F080FE002300220321DFF873
:101970006C0700F079FE002300220421DFF85C07E9
:1019800000F072FE002300220521DFF8500700F06E
:101990006BFE002300220621DFF8400700F064FE02
:1019A000002300220721DFF8340700F05DFE00F07D
:1019B000FAF903AA00215C2000F0CCFB002840F0DB
:1019C000C380BDF80C0041F22431884206D0DFF814
:1019D000102701210220FFF7D3FDFEE7DFF80427DF
:1019E00001210220FFF7CCFDBC21782000F0ADF8EA
:1019F000012000F007F90122AC21B82000F076FBAD
:101A00004FF4F072AD21B82000F070FB04222C21BD
:101A1000B82000F06BFB8022C221B82000F066FBEA
:101A200000220F21B82000F061FB40F201120F21CB
:101A3000B82000F05BFB4FF4C4720721B82000F01F
:101A400055FB00227021B82000F050FB40F2033219
:101A5000AF21B82000F04AFB0122AC21B82000F0F1
:101A600045FB4FF4F072AD21B82000F03FFB32226D
:101A7000AB21B82000F03AFB45F62002B021B82097
:101A800000F034FB40F203321C21B82000F02EFBA2
:101A900042F62E521321B82000F028FB40F2C73244
:101AA0002021B82000F022FB10222421B82000F0D1
:101AB0001DFB03222B21B82000F018FB03222F214D
:101AC000B82000F013FB40F2BB120821B82000F050
:101AD0000DFB40F2D9120921B82000F007FB642267
:101AE0000A21B82000F002FB1A223221B82000F0AF
:101AF000FDFAE8220B21B82000F0F8FA40F20312B8
:101B00000F21B82000F0F2FA3C22A521B82000F005
:101B1000EDFA48F210023521B82000F0E7FA03226E
:101B20000C21B82000F0E2FA81200290BC20019044
:101B3000002000906C23DFF82825DFF8AC15042086
:101B4000FFF7A6FE05B000BDFEE738B504000D00A6
:101B50000022280080B2800040F2F12188420FDA92
:101B6000200080B2800040F2E111884208DAADB274
:101B7000AD00A4B2A40052F0020252F0080215E037
:101B8000280080B2400040F2F12188420EDA2000A5
:101B900080B2400040F2E111884207DAADB26D0038
:101BA000A4B2640052F0010252F0040252F030027A
:101BB00092B20D21B82000F099FA2A0092B20421C5
:101BC000B82000F093FA220092B20321B82000F06E
:101BD0008DFAADB2D5F53C75022095FBF0F2521CA2
:101BE00092B20121B82000F081FAA4B2D4F5F074C9
:101BF000022094FBF0F2121D92B20221B82000F0F4
:101C000075FA31BD1CB504000020ADF800006A462D
:101C1000AF21B82000F09EFAE4B2012C09D1BDF842
:101C2000002052F0030292B2AF21B82000F05EFA19
:101C300008E0BDF800204FF6FC700240AF21B8204C
:101C400000F054FA13BD38B500200020002008240D
:101C500098E00020DFF85C252300DBB2BC214B4379
:101C600002EB03012A00D2B231F81210002901D090
:101C700050F00100DFF83C252300DBB2BC214B43D0
:101C800002EB03012A00D2B201EB4201B1F8BC1011
:101C9000002901D050F00200DFF818252300DBB244
:101CA000BC214B4302EB03012A00D2B201EB4201FB
:101CB000B1F87811002901D050F00400DFF8F424C5
:101CC0002300DBB2BC214B4302EB03012A00D2B25A
:101CD00001EB4201B1F83412002901D050F00800A4
:101CE000DFF8D0242300DBB2BC214B4302EB03011D
:101CF0002A00D2B201EB4201B1F8F012002901D062
:101D000050F01000DFF8AC242300DBB2BC214B43C1
:101D100002EB03012A00D2B201EB4201B1F8AC138D
:101D2000002901D050F02000DFF888242300DBB226
:101D3000BC214B4302EB03012A00D2B201EB42016A
:101D4000B1F86814002901D050F04000DFF8642495
:101D50002300DBB2BC214B4302EB03012A00D2B2C9
:101D600001EB4201B1F82415002901D050F08000A8
:101D7000C0B2FFF77DFA6D1C2800C0B25E28FFF6E6
:101D800068AF08342000C0B238280BDA2000C0B297
:101D9000082190FBF1F1491CC9B21220FFF7F7FAB4
:101DA0000025E9E731BD80B5002301220A21CB4897
:101DB00000F05AFC002301220B21C84800F054FC1B
:101DC00001BD00000020002001E000BF401C010018
:101DD000C9B26429F9DB704780B5DFF8DC0300681D
:101DE00050F40060DFF8D0130860DFF8CC0300681F
:101DF00050F48060DFF8C0130860FFF7E3FFB748D6
:101E0000006850F48060B5490860B448006850F438
:101E10000060B2490860FFF7D5FFB048006830F4B1
:101E20008060AE490860FFF7CDFFAC48006830F431
:101E30000060AA490860FFF7C5FF01BD80B5DFF863
:101E40007803006850F40060DFF86C130860DFF876
:101E50006803006850F48060DFF85C130860FFF7E7
:101E6000B1FF9E48006830F480609C490860FFF72D
:101E7000A9FF9A48006850F4006098490860FFF78D
:101E8000A1FF9648006850F4806094490860FFF70D
:101E900099FF01BD38B50400DFF81C03006850F459
:101EA0008060DFF81413086000252AE0DFF80C03D7
:101EB000006830F48060DFF80413086009E0200651
:101EC000F4D5DFF8F802006850F48060DFF8EC1217
:101ED00008606400FFF776FFDFF8E002006850F466
:101EE0000060DFF8D8120860FFF76CFFDFF8CC0263
:101EF000006830F40060DFF8C4120860FFF762FF8A
:101F00006D1C2800C0B20828D9DBDFF8B0020068D9
:101F100050F48060DFF8A4120860DFF89C020068CB
:101F200030F48060DFF890120860FFF74BFFDFF8B5
:101F30008C02006850F40060DFF880120860FFF740
:101F400041FF69480468A40A14F00104DFF86C0238
:101F5000006830F40060DFF864120860FFF732FFB9
:101F60002000C0B232BD38B5DFF84C02006850F432
:101F70000060DFF844120860DFF83C02006830F4CB
:101F80008060DFF834120860002515E053480068CF
:101F900030F4006051490860FFF714FF4F480068B3
:101FA00050F400604D490860FFF70CFF4E48006890
:101FB000800A400864416D1C2800C0B20828E5DB97
:101FC0004648006830F4006044490860DFF8E801E2
:101FD000006850F48060DFF8E0110860FFF7F2FE5F
:101FE0002000C0B232BD80B5DFF8CC01006850F4EB
:101FF0000060DFF8C4110860DFF8BC01006850F42D
:102000008060DFF8B4110860DFF8B001006830F4D8
:102010000060DFF8A8110860DFF8A001006830F464
:102020008060DFF898110860FFF7CCFEDFF88C01C4
:10203000006850F40060DFF884110860FFF7C2FE0A
:10204000DFF87801006830F40060DFF87011086094
:10205000FFF7B8FE01BD0000A0C00440A387002028
:102060002803002080B5DFF85001006850F40060BC
:10207000DFF844110860DFF84001006850F4806028
:10208000DFF834110860DFF83401006830F40060D4
:10209000DFF828110860FFF795FEDFF820010068DF
:1020A00050F48060DFF814110860FFF78BFEDFF852
:1020B0000C01006850F40060DFF800110860FFF7C1
:1020C00081FEDFF8F800006830F40060DFF8EC1003
:1020D0000860FFF777FE01BDA4870020C0F00F4025
:1020E000105E0000185E0000D0F00F402DE9F041B6
:1020F00005000E0017005FF0000801E018F101086C
:102100004046C0B2032823DAFFF766FE2800C0B2BB
:10211000FFF7C0FEC0B20128F0D03000C0B2FFF718
:10212000B9FEC0B20128E9D0380080B2000AC0B2BE
:10213000FFF7B0FE3800C0B2FFF7ACFE040020008D
:10214000C0B20128DAD0FFF779FEE4B2002CD5D175
:10215000BDE8F081F8B504000D001600002764000A
:10216000FFF73AFE2000C0B2FFF794FEC71928001F
:10217000C0B2FFF78FFEC719FFF72EFE641C2000C8
:10218000C0B2FFF787FEC719FFF7EDFE3080FFF7FB
:102190002AFF308800023080FFF7E5FE318851FACF
:1021A00080F03080FFF75EFFFFF748FE3800C0B2D6
:1021B000F2BD0000485B0020D4F00F40C0F00F409B
:1021C0000CB430B583B0044606A802900A46002538
:1021D0000194009502AB01A9084878441E3000F034
:1021E000C9FB01990D7000284EBF04460198041BDD
:1021F000204603B030BC5DF80CFB00BF1F0300009D
:1022000070B44FF0004591EA030F40F11D866B401A
:10221000841A71EB030604D26E40001BB1411219FF
:1022200073414FF4001C1CEB410F34BF7CEB4306A1
:1022300082E00C0DA4EB1356362E7BDC012E45EA12
:10224000C32341DC43EA525312BFD20292025B081D
:10225000240545EAC12141EA5051D2EBC020994101
:1022600025D407D1B0FA80F610FA06F162D000202A
:10227000203608E0B1FA81F6B140C6F1200220FA1A
:1022800002F21143B0404FEAF474B4EB465434F018
:1022900001064FEA74040AD8D6F50016760D04F04C
:1022A0000044F04061FA06F25040F1404840C00A54
:1022B00040EA415021F0004128BF5FEA500550F14B
:1022C000000044EBD12135E0DB0A45EAC121C90A0F
:1022D000B6F120050EDD42EA0242120CC5F12006DD
:1022E00003FA06F6EB4042EA06056D42984161F1B9
:1022F00000010DE062FA06F5F240554063FA06FC73
:1023000082EA0C02F3405A406D42904161EB0301B6
:1023100011F4801F05D1641E620502D06D0040419A
:10232000494121F48011430875F1004350F1000048
:1023300041EB045170BC70471CEB410F15D223F0E8
:10234000004352EA43060BD04FEA4C0CBCEB410F62
:1023500004D80C0D661E342EB7DDEBE7801A9941C8
:1023600050EA410608BF0021E4E708BF1CEB430F19
:1023700028BF6FF00001DDE7B0B581EA030C0CF077
:10238000004C40F2FF7515EA11541DBF15EA1357B2
:10239000AC42AF4239E0E41923EA455343F48013D9
:1023A000C90241F0004141EA505EC7021100A7FB9B
:1023B000020200284FF00000EEFB01204FF0000168
:1023C000E3FB072118BF42F00102401800214941F8
:1023D000E3FB0E01A4F580640F0302D252004041DA
:1023E000494154F101046CDD470872F1004250F19B
:1023F000000051EB0451A1F580115CBF41EA0C01D2
:10240000B0BD4CEA05510020B0BD05EA1357AC42FF
:1024100014BFAF4241E050EA410E1CBF52EA430EE6
:1024200002E061460020B0BD24423C441BD15FEA7B
:10243000070EF6D0090302BF01460020AEF1140ECC
:10244000B1FA81F7AEEB070401FA07FE0C37C7F1CA
:10245000200100FA07F7C8404EEA000E23EA455370
:1024600043F48013A2E733F00043B3FA83F704BFC9
:10247000B2FA82FE77440B3FE41BB7F1200E2FBF68
:1024800002FA0EF3BB40C7F1200E22FA0EFE38BF4F
:1024900043EA0E03BA40641C82E750EA410E14BFBF
:1024A00052EA430E6FF000014FF4001717EB430F91
:1024B0008ABF194617EB410FB5E74CEA05510020DA
:1024C000B0BDD4F10104B4F120070FDAC4F1200744
:1024D000520828BF42F0010210FA07F501FA07F787
:1024E000E1BF2A43E0403843E1400FE0352C98DC5F
:1024F000C7F1200452EA400220FA07F218BF42F066
:10250000010231FA07F0A1400A43002172F10042B2
:1025100050F1000051EB0C01B0BD0268531C036088
:1025200011707047C1F30A5340F2FE329B1A14DD5A
:10253000D3F120034FEAE17208DDC90241EA5051AC
:1025400041F00040D84080185040704703F2E1301D
:1025500010B1D24382F00040704700207047FEE780
:102560003648006850F0006034490860344800681C
:1025700030F0C000324908603148006830490860D6
:1025800070470022C9B2890011F00C0151F05001CE
:102590002C4A116004212C4A11600100C9B20C3987
:1025A000042908D2C0B208382749096851F010013F
:1025B000254A116006E0C0B22349096831F01001D4
:1025C000214A116010F01F0050F040001F490860C0
:1025D000704780B50022C9B2C0B2FFF7D2FF1B48D6
:1025E00000680006FBD51A4800681849096831F0F0
:1025F0008001164A116080B202BD2DE9F04104004D
:102600000D00160000275FF0000809E02900C9B29C
:102610002000C0B2FFF7DDFF17FA80F718F10108BC
:102620004046C0B2310080B289B28842EED3B6B221
:10263000B7FBF6F080B2BDE8F08100003C800440BA
:102640001880044008B003400CB0034000B00340C1
:1026500010B00340012210F01F018A40444940B2EB
:10266000400941F82020704770B4424C246854F46B
:102670007854404D2C6005003F4EAD1B08D0403DC6
:1026800008D0403D08D0403D08D0403D08D009E08A
:102690003A4C07E03A4C05E03A4C03E03A4C01E092
:1026A0003A4CFFE74FF4807544F82150D2B2012A2A
:1026B00015D1426901248C4022434261012B06D18D
:1026C0000268012313FA01F1114301600EE0026870
:1026D000012313FA01F132EA0101016006E04269C7
:1026E000012313FA01F132EA0101416170BC704724
:1026F0000268012313FA01F15140016070470100A3
:1027000023480A00D2B2521150F82200006911F099
:102710001F01C84010F00100704738B5164D401B2E
:1027200008D0403809D040380AD040380BD0403863
:102730000CD00EE0114C3B230BE0114C3C2308E085
:10274000104C3D2305E0104C3E2302E00F4C3F238C
:10275000FFE7D2B2120412F4702252F48072C9B2AE
:1027600044F82120180040B2FFF774FF31BD00008B
:1027700000E100E03880044000F00F400090044089
:1027800000A0044000B0044000C0044000D0044059
:102790000800002080B50023012208217448FFF7BB
:1027A00063FF0023012209217148FFF75DFF002329
:1027B00001220A216E48FFF757FF002301220B2157
:1027C0006B48FFF751FF01BD80B5C0B2002808D0AB
:1027D000012824D002285ED003283ED0062878D0D5
:1027E000C5E00800C0B2002806D16148006830F496
:1027F00080705F49086011E00800C0B2012806D16E
:102800005B48006850F480705949086006E0C9B21E
:10281000022903D108215648FFF76AFFA7E0080004
:10282000C0B2002806D15248006830F40070504908
:10283000086011E00800C0B2012806D14C480068C9
:1028400050F400704A49086006E0C9B2022903D179
:1028500009214748FFF74CFF89E00800C0B2002873
:1028600006D14348006830F480604149086011E0B7
:102870000800C0B2012806D13D48006850F48060CD
:102880003B49086006E0C9B2022903D10A21384851
:10289000FFF72EFF6BE00800C0B2002806D13448D5
:1028A000006830F400603249086011E00800C0B2EE
:1028B000012806D12E48006850F400602C490860B9
:1028C00006E0C9B2022903D10B212948FFF710FF06
:1028D0004DE00800C0B2002818D12548006830F447
:1028E0008070234908602248006830F40070204955
:1028F00008601F48006830F480601D4908601C486B
:10290000006830F400601A4908602FE00800C0B287
:10291000012818D11648006850F4807014490860E6
:102920001348006850F400701149086010480068AE
:1029300050F480600E4908600D48006850F4006053
:102940000B49086012E0C9B202290FD108210848DA
:10295000FFF7CEFE09210648FFF7CAFE0A21044808
:10296000FFF7C6FE0B210248FFF7C2FEFFE701BDDD
:1029700040F00F402DE9F84F92B081461C98DFF8E7
:102980000C828DF82F00154600209A46029108907F
:102990000FF290464FF0FF370CE025280FD015F8C6
:1029A000011B0298C8470028029000F0D8800898C0
:1029B000401C089028780028EFD10898E8E0002013
:1029C000002105900691079001E041F0010115F802
:1029D000010F2028F9D023280CD02B2804D02D2833
:1029E00005D0302809D0BCE041F00201EFE741F00A
:1029F0000401ECE741F00801E9E741F01001E6E7E6
:102A000000200A9009E00A98404505DA00EB8003AF
:102A100002EB4302303A0A926D1C2A78A2F1300090
:102A20000A28F0D328782E2818BF099726D115F840
:102A3000010F2A280AD1DAF80000CAF800006D1C3C
:102A400050F8042BCAF80000099217E02D280CBF9B
:102A500015F8010B0020002209920AE040B9099AFA
:102A6000424505DA02EB820403EB4403303B099351
:102A70006D1C2B78A3F130020A2AEFD3ADF82C108D
:102A80003046297800F04AFA08B115F8010B8DF8A4
:102A90002E009DF82E00682804BF2978682903D1EC
:102AA00062208DF82E006D1C0CA80490524615F87B
:102AB000013B01A9484600F099F800284FD10A9837
:102AC0000599079A069C401A801A041B9DF82C0051
:102AD00041070FD42021002C8DF800100ADDA346F9
:102AE00001236A4601A9484600F085F9B8BBBBF14D
:102AF000010BF5D1059B0CAA01A9484600F07BF912
:102B000068BBDDF81CB03020BBF1000F8DF8000071
:102B100009DD01236A4601A9484600F06CF9F0B9C5
:102B2000BBF1010BF5D1069B039A01A9484600F0C1
:102B300062F9A0B99DF82C0041077FF53BAF202139
:102B4000002C8DF800107FF735AF01236A4601A9EC
:102B5000484600F050F910B9641EF6D12AE738460D
:102B600016E02A287FF44CAFDAF80020CAF80020DB
:102B700052F8040BCAF8002000280A9003D54042FE
:102B80000A9041F004016D1C4CE70000CBCCCC0C4A
:102B900013B0BDE8F08F62280ED0682819D1002A42
:102BA0000A680A60106803D0121D0A6000B217E0BC
:102BB000121D0A6080B217E0002A0A680A601068D5
:102BC00003D0121D0A6040B20AE0121D0A60C0B2B2
:102BD0000AE0002A0A680A60106803D0121D0A6021
:102BE000C1177047121D0A600021704770B51C465E
:102BF0000D46252CEE68114600F08480582C37D005
:102C0000632C0ED0642C18BF692C14D06F2C2FD0DD
:102C1000702C49D0732C53D0752C18BF782C27D02A
:102C200076E02869421C2A610A680A6052F8043B6F
:102C30000A60335476E095F82A000122FFF7ABFFD3
:102C40000028286004D52869411C29612D210DE048
:102C5000288D810704D52869411C29612B2105E0B5
:102C6000C0071CD52869411C29612021315416E078
:102C700095F82A000022FFF78EFF286095F82810AB
:102C800008070CD5286850B144F02001782906D1F6
:102C9000286930213154401C411C2961345421469B
:102CA00028693044A86007E00868086050F8042BE1
:102CB00008602A60AE607821284600F035F831E0DF
:102CC0000868086050F8044B0860AC603CB900BF6D
:102CD00056A000F02FF94FF0FF34201A70BD2E6A75
:102CE000002E04D5204600F045F9044608E032469F
:102CF0000021204600F05AF9002814BF041B344676
:102D00006C610FE02869411C29612521315409E0DB
:102D10002969481C286125227254210002D0411CD7
:102D200029613454002070BDF0B402466F29D46884
:102D300008BF082605D041F02000782814BF0A26D5
:102D4000102618251768642918BF6929384602D14A
:102D5000002F48BF4042F0B9136AE3B9082E39D1B9
:102D600092F82800010735D530201725E07531E0AD
:102D700000280ED592F8280000F01400102808D181
:102D8000536A10691B1A90691B1A591A0129A8BFA6
:102D90009161F0BC7047B0FBF6F706FB17003030CE
:102DA0006D1EC3B23A2BA4BFA1F151031818605590
:102DB000380003D093686719BB42ECD3082E09D1C1
:102DC00092F82800010705D5615D302902D06D1EFB
:102DD0003020605560199060C5F11801106A51618A
:102DE0008142C5DA411A91614FF6EF70118D0140B1
:102DF0001185F0BC7047F8B505460E4617461C46CF
:102E0000002074B117F8011B7068A847706030B1DA
:102E1000F069401CF0610020641EF3D1F2BD4FF058
:102E2000FF30F2BD686C747A4C0000007072696EFD
:102E300074665F733A206261642025732061726753
:102E4000756D656E74000000841A71EB030603D281
:102E5000001BB141121973414FF4001C1CEB410FD0
:102E600034BF7CEB430442E00C0DA4EB1356352E2B
:102E70004FDC45EAC323DB0A45EAC121C912B6F19A
:102E800020050DDD63FA05F6EB4086EA03051242E4
:102E900018BF45F00105C01851F100010CD213E034
:102EA00062FA06F5F2405540F3415A40B340F34010
:102EB0005A408018594107D349085FEA30005FEA59
:102EC000350528BF45F0010501F58011420875F16F
:102ED000004250F1000041EB04514E0016F5001F76
:102EE00070BC38BF70470020090D090570471CEB06
:102EF000410F10D252EA43060BD0BCEB410F05D86C
:102F00000C0DAB43661E342EB6DD02E0AB438018D9
:102F1000594170BC704770BC7047FEE70278C9B277
:102F20008A421AB11CBF10F8012FF9E718BF002020
:102F30007047FEE780B500B906A005490B681BB1D4
:102F400022220021984701E000F05CF8222002BD17
:102F50008C870020636F6E73747261696E74206871
:102F6000616E646C65723A20626164206D65737392
:102F70006167650000F10103810704D010F8011BAF
:102F800089B18107FAD10268B2F10131914311F0A0
:102F9000803F04BF50F8042FF6E710F8011B11B171
:102FA00010F8011BFBE7C01A7047FEE7C9B28307A0
:102FB00006D0521E22D310F8013B9942F7D11FE0F0
:102FC000083A13D302F1040241EA012141EA014126
:102FD00050F8043B121F21BF4B40A3F1013C2CEAE7
:102FE000030C1CF0803FF3D0C9B2001F083210F868
:102FF000013B521E28BF91EA030FF8D818BF0120E9
:10300000401E7047012000F001B8FEE780B5AFF325
:103010000080024A11001820ABBEFBE72600020028
:1030200030B40400DFF8AC55AC4200F08E80DFF81D
:10303000A855AC4208D0DFF8A455AC424DD0DFF81B
:10304000A055AC4265D09DE0DFF89845246854F067
:103050008074DFF890552C600C00E4B2002C0BD08B
:10306000022C15D00ED3042C1ED017D3062C27D03B
:1030700020D3072C2AD02FE04FF48064DFF8685566
:103080002C607FE04FF48064DFF860552C60F8E737
:103090004FF48064DFF858552C60F2E74FF48064F9
:1030A000DFF850552C60ECE74FF48064DFF84855AA
:1030B0002C60E6E74FF48064DFF840552C60E0E7D1
:1030C0004FF48064DFF838552C60DAE74FF4806401
:1030D000DFF830552C60D4E773E0DFF8084524684A
:1030E00054F00074DFF8FC542C600C00E4B2002CA7
:1030F00002D0012C06D00BE04FF44074DFF80855E5
:103100002C603FE04FF44074DFF800552C60F8E786
:1031100057E0DFF8D044246854F08064DFF8C454EA
:103120002C600C00E4B2002C02D0012C06D00BE085
:103130004FF44074DFF8D8542C6023E04FF440740F
:10314000DFF8D0542C60F8E73BE0DFF8CC4424688B
:1031500054F00074DFF8C0542C600C00E4B2002C72
:103160000BD0022C35D02ED3042C3ED037D3062CD6
:1031700047D040D3072C4AD04FE04FF4C064DFF86B
:103180009C542C600C00E4B200EBC404E46834F0FE
:1031900004040D00EDB200EBC505EC6028240D0021
:1031A000EDB200EBC505EC600C24046092B28260C5
:1031B0000022C2649BB2C9B200EBC1010B610021C5
:1031C000416030BC70474FF4C064DFF854542C6049
:1031D000D8E74FF4C064DFF84C542C60D2E74FF4CA
:1031E000C064DFF844542C60CCE74FF4C064DFF8CF
:1031F0003C542C60C6E74FF4C064DFF834542C60B4
:10320000C0E74FF44074DFF82C542C60BAE74FF459
:103210004074DFF824542C60B4E7D2E730B40400E3
:10322000DFF8B053AC4200F08E80DFF8AC53AC4214
:1032300008D0DFF8A853AC424DD0DFF8A453AC421D
:1032400065D09DE0DFF89C43246854F08074DFF87B
:1032500094532C600C00E4B2002C0BD0022C15D03F
:103260000ED3042C1ED017D3062C27D020D3072C26
:103270002AD02FE04FF48064DFF86C532C607FE09D
:103280004FF48064DFF864532C60F8E74FF48064F7
:10329000DFF85C532C60F2E74FF48064DFF854539E
:1032A0002C60ECE74FF48064DFF84C532C60E6E7C9
:1032B0004FF48064DFF844532C60E0E74FF48064FF
:1032C000DFF83C532C60DAE74FF48064DFF83453C6
:1032D0002C60D4E773E0DFF80C43246854F00074EA
:1032E000DFF800532C600C00E4B2002C02D0012C5B
:1032F00006D00BE04FF44074DFF80C532C603FE035
:103300004FF44074DFF804532C60F8E757E0DFF81F
:10331000D442246854F08064DFF8C8522C600C005A
:10332000E4B2002C02D0012C06D00BE04FF4407424
:10333000DFF8DC522C6023E04FF44074DFF8D45205
:103340002C60F8E73BE0DFF89C42246854F040042E
:10335000DFF890522C600C00E4B2002C0BD0022C51
:1033600035D02ED3042C3ED037D3062C47D040D3B3
:10337000072C4AD04FE04FF4C064DFF8A0522C6015
:103380000C00E4B200EBC404E46834F004040D0063
:10339000EDB200EBC505EC6028240D00EDB200EBAA
:1033A000C505EC600F24046092B282600022C26402
:1033B0009BB2C9B200EBC1010B610021416030BC7E
:1033C00070474FF4C064DFF858522C60D8E74FF4D0
:1033D000C064DFF850522C60D2E74FF4C064DFF8CD
:1033E00048522C60CCE74FF4C064DFF840522C60A8
:1033F000C6E74FF4C064DFF838522C60C0E74FF4E2
:103400004074DFF830522C60BAE74FF44074DFF8B4
:1034100028522C60B4E7D2E70100DFF8B8219142CE
:103420002ED0DFF8B821914204D0DFF8B4219142C8
:1034300013D055E0DFF8AC11096851F00071DFF8E6
:10344000A42111604FF4E061DFF8F02111604FF426
:10345000E061DFF8EC21116042E0DFF888110968D3
:1034600051F08061DFF87C2111604FF4C061DFF81A
:10347000A02111604FF4C061DFF8982111602FE0A6
:10348000DFF89411096851F04001DFF88C211160D8
:103490004FF4C061DFF8842111604FF4C061DFF8A0
:1034A000802111604FF4C061DFF8782111604FF482
:1034B000C061DFF8742111604FF4C061DFF86C2146
:1034C00011604FF4C061DFF8682111604FF4806132
:1034D000DFF8602111604FF48061DFF85C2111603A
:1034E000416D51F004014165D0F8801051F00801A0
:1034F000C0F880100021C1644FF6FF718160D0F8E0
:10350000801051F00101C0F88010416D51F00101AF
:1035100041650021416070470100486800224A600F
:1035200000B2704780B500234FF47A7200212A4818
:10353000FFF776FD00234FF47A7201212648FFF74A
:103540006FFD00234FF47A7202212348FFF768FDD4
:1035500000234FF47A7203211F48FFF761FD01BD7C
:1035600080B54FF41B7344F6206207211948FFF71A
:1035700055FE4FF41B7344F6206206211548FFF7F1
:103580004DFE01BD80B2062810D007281DD10129AB
:1035900005DB00202B4A10602B48016005E000206D
:1035A000294A10604942274801600EE0012905DBE5
:1035B0002648016000202649086005E04942244869
:1035C0000160002021490860FFE770472149086039
:1035D00070470000006002400080034000900340FC
:1035E00000A003403C80044004B0044008B0044004
:1035F0000CB0044010B0044010C0044014C004409B
:1036000018C004401CC00440209004402490044092
:1036100048A004404CA004403080044014D0044032
:1036200018D004401CD0044020D0044024D00440D2
:1036300028D0044028B004402CB00440309004400E
:1036400034900440108003401880034020800340E1
:103650002880034048600240000000000000000095
:103660000000000000000000000000F80000000062
:10367000000000333000000000100C06100C0600A3
:10368000000000000000000040C07840C07840000A
:10369000043F04043F040400007088FC083000006C
:1036A000001820FF211E0000F008F000E0180000C4
:1036B00000211C031E211E0000F00888700000007D
:1036C0001E2123241927211010160E0000000000CF
:1036D0000000000000000000000000E018040200EC
:1036E000000000071820400000020418E00000005D
:1036F0000040201807000000404080F0804040005B
:103700000202010F01020200000000F000000000B0
:103710000101011F01010100000000000000000084
:1037200080B07000000000000000000000000000F9
:103730000001010101010101000000000000000082
:10374000003030000000000000000000806018041D
:10375000006018060100000000E010080810E000FA
:10376000000F102020100F00001010F800000000C3
:103770000020203F2020000000700808088870000A
:10378000003028242221300000300888884830008A
:103790000018202020110E000000C02010F80000AA
:1037A00000070424243F240000F808888808080043
:1037B0000019212020110E0000E010888818000058
:1037C000000F112020110E0000380808C83808002A
:1037D0000000003F000000000070880808887000AA
:1037E000001C222121221C0000E010080810E0002B
:1037F0000000312222110F00000000C0C0000000B4
:1038000000000030300000000000008000000000D8
:1038100000008060000000000000804020100800D0
:103820000001020408102000404040404040400099
:103830000404040404040400000810204080000074
:103840000020100804020100007048080808F00079
:103850000000003036010000C030C828E810E00049
:103860000718272423140B000000C038E0000000D4
:10387000203C23020227382008F88888887000003E
:10388000203F202020110E00C03008080808380012
:10389000071820202010080008F808080810E00089
:1038A000203F202020100F0008F88888E80810002A
:1038B000203F20202320180008F88888E8081000FE
:1038C000203F200003000000C03008080838000036
:1038D00007182020221E020008F808000008F80837
:1038E000203F210101213F20000808F808080000BE
:1038F0000020203F2020000000000808F8080800F1
:10390000C08080807F00000008F888C02818080068
:10391000203F20012638200008F8080000000000A1
:10392000203F20202020300008F8F800F8F8080098
:10393000203F003F003F200008F830C00008F80892
:10394000203F200007183F00E01008080810E000A2
:103950000F10202020100F0008F808080808F000B9
:10396000203F210101010000E01008080810E000DC
:103970000F18242438504F0008F888888888700071
:10398000203F2000030C3020007088080808380011
:103990000038202121221C00180808F80808180007
:1039A0000000203F2000000008F808000008F80888
:1039B000001F202020201F000878880000C8380839
:1039C000000007380E010000F80800F80008F800B1
:1039D000033C0700073C030008186880806818084B
:1039E00020302C03032C30200838C800C8380800C9
:1039F0000000203F2000000010080808C838080018
:103A00002038262120201800000000FE02020200BB
:103A10000000007F40404000000C30C0000000006B
:103A2000000000010638C00000020202FE00000093
:103A3000004040407F000000000004020202040039
:103A40000000000000000000000000000000000076
:103A5000808080808080808000020204000000005E
:103A60000000000000000000000080808080000056
:103A70000019242222223F2008F800808000000044
:103A8000003F112020110E00000000808080000007
:103A9000000E112020201100000000808088F80016
:103AA000000E112020103F20000080808080000048
:103AB000001F222222221300008080F088888818AC
:103AC0000020203F202000000000808080808000B7
:103AD000006B94949493600008F80080808000004C
:103AE000203F210000203F20008098980000000027
:103AF0000020203F20200000000000809898000057
:103B000000C08080807F000008F800008080800076
:103B1000203F24022D302000000808F8000000009B
:103B20000020203F20200000808080808080800056
:103B3000203F20003F20003F8080008080800000E8
:103B4000203F210000203F20000080808080000076
:103B5000001F202020201F008080008080000000A7
:103B600080FFA12020110E000000008080808000D6
:103B7000000E112020A0FF808080800080808000C7
:103B800020203F21200001000000808080808000F4
:103B90000033242424241900008080E08080000069
:103BA0000000001F202000008080000000808000B6
:103BB000001F202020103F20808080000080808017
:103BC00000010E30080601008080008000808080A7
:103BD0000F300C030C300F000080800080808000CC
:103BE0000020312E0E3120008080800000808080F7
:103BF00080818E70180601000080808080808000A7
:103C00000021302C2221300000000000807C0202C4
:103C100000000000003F404000000000FF000000E6
:103C200000000000FF0000000002027C8000000095
:103C30000040403F000000000006010102020404B1
:103C40000000000000000000811DDFF8B404014303
:103C50000878C0B27047801D50F090500078C0B214
:103C60007047801D50F080500078C0B270478901C5
:103C7000001D50F0985001707047801D50F0985012
:103C80000078C0B2002801D0012000E00020C0B2BE
:103C90007047801D50F094500078C0B2002801D0C9
:103CA000012000E00020C0B27047801D50F0845019
:103CB0000078C0B2002801D0012000E00020C0B28E
:103CC00070472DE9F04106004FF400773000FFF710
:103CD000BBFF80463000FFF7BEFF0400701C50F0B1
:103CE000845005783000FFF7D4FF5FFA88F8B8F108
:103CF000000F07D0B8F1020F1BD00DD3B8F1030F9E
:103D000026D02DE0C0B2002805D1E4B2002C01D1AC
:103D1000082700E0012723E0E4B2012C08D1C0B25B
:103D2000002805D1EDB2002D01D1022700E00427C3
:103D300016E0E4B2002C0AD1EDB2002D06D1C0B2DB
:103D4000002801D0402702E0102700E0202707E0EC
:103D5000E4B2002C03D1C0B2002800D08027FFE7D6
:103D6000380000B2BDE8F0812DE9F04105000E00F9
:103D7000170000240020E91C51F09C510870280015
:103D8000FFF769FF002805D195F8038098F020001F
:103D9000E8700124287810F03B0050F004002870EF
:103DA0002800FFF758FF0128FAD1E4B2002C01D017
:103DB00085F803802800FFF747FF0028FAD1E8784C
:103DC00010F09F00710111F060010843E870E91CD8
:103DD000CC48014308783100C0B2C9B28842F6D15C
:103DE0003800002800D0B8470020BDE8F0812DE958
:103DF000F041050090461E0000242800FFF72BFF2D
:103E0000012804D1EF7897F02000E8700124287889
:103E100010F003005FEAC80818F0380858EA0008F4
:103E200085F80080681C50F088500078C0B20028E7
:103E300004D02800FFF739FF0028FAD02800FFF748
:103E40000AFF0028FAD1E4B2002C00D0EF700699E6
:103E5000E87810F01F0050EAC6104A0112F0600224
:103E60001043E870EA1CA748024310780A00C0B269
:103E7000D2B29042F6D12800FFF7E6FE0028FAD130
:103E800007980100002900D080470020BDE8F0819C
:103E90002DE9F84305000E00170098460024002085
:103EA000E91C51F09C5108702800FFF7D4FE00284F
:103EB00005D195F8039099F02000E8700124287846
:103EC00010F03B0050F0440028702800FFF7C3FEBC
:103ED0000128FAD1E4B2002C01D085F80390380013
:103EE000C0B2012804D14146C9B2280000F0D2F97D
:103EF000697811F0FC0117F0010001436970280096
:103F0000FFF7AFFE3900C9B28842F8D1E87810F067
:103F10009F00710111F060010843E870E91C7948C5
:103F2000014308783100C0B2C9B28842F6D12800F6
:103F3000FFF78AFE0128FAD108980100002900D075
:103F400080470020BDE8F2832DE9F041050017000D
:103F50001E0000240020691D51F0985108702800AF
:103F6000FFF797FE0028FAD10020691C51F0845118
:103F700008702800FFF76FFE012805D195F803802F
:103F800098F02000E8700124287810F00300FF006A
:103F900017F03807074357F080072F702800FFF706
:103FA0005AFE0028FAD1E4B2002C01D085F8038033
:103FB000681C50F088500078C0B2002804D0280057
:103FC000FFF773FE0028FAD00699E87810F01F007A
:103FD00050EAC6104A0112F060021043E870EA1C71
:103FE0004848024310780A00C0B2D2B29042F6D1DB
:103FF0002800FFF729FE0228FAD1079801000029BE
:1040000000D080470020BDE8F08138B504001500DD
:104010002800C0B2012803D1C9B2200000F03AF94B
:10402000617811F0FE0115F00100014351F0020129
:1040300061702000FFF715FE2900C9B28842F8D14F
:10404000002032BD80B50222431C53F084531A7005
:10405000C9B200F091F8002002BD70B504000E0056
:104060001D000020611C51F08451087080202649F9
:10407000214308702000FFF7E7FD0228FAD1310044
:10408000C9B2200000F078F800212000FFF7EFFD12
:104090000020611D51F0985108702000FFF7F9FDD4
:1040A0000028FAD10498217911F0F80115F00705DC
:1040B0000D432571617911F0E00110F01F000843F4
:1040C00060714020611D51F0985108702000FFF789
:1040D000E0FD0128FAD12000FFF7CFFD0028FAD03B
:1040E000002070BD10B5040000200749214308706E
:1040F0002000FFF7A9FD0328FAD1002010BD000021
:10410000000010110000901200001013811DDFF854
:10411000180301430878C0B27047401C50F080502B
:1041200001707047801D50F080500078C0B2704719
:10413000801D50F098500078C0B2002801D00120B6
:1041400000E00020C0B27047801D50F0945000780D
:10415000C0B2002801D0012000E00020C0B27047AA
:10416000801D50F084500078C0B2002801D001209A
:1041700000E00020C0B2704710B50400601C50F091
:1041800088500078C0B2002804D02000FFF7E8FF74
:104190000028FAD010BDDFF8940200687047D140C3
:1041A000DBB2002B13D0D2B2002A052A04D9921F09
:1041B00004D0521E06D009E0490908E01420B1FBE2
:1041C000F0F104E00C20B1FBF0F100E00021080068
:1041D00070471CB5040054F088500078C0B2002825
:1041E00014D12000FFF7D7FF010054F08D50027862
:1041F000631CDFF83C0203431B780020C0B2009030
:10420000DBB2D2B22000FFF7CAFF02E0DFF82402DF
:10421000006816BD10B41000C0B2002805D048F2E6
:10422000010081420AD3002012E047F61220081A4A
:1042300041F68664A04201D3002009E0DFF8F801CE
:10424000DBB200EB8300D2B230F812004143080029
:1042500010BC704710B504002000FFF775FF002860
:1042600001D0002015E02000FFF7B3FF0100002976
:1042700001D100200DE0E01C50F09C500278E31CBE
:10428000DFF8B80103431B78DBB2D2B22000FFF79E
:10429000C1FF10BD38B504000D0014F1080050F046
:1042A000855000782900C0B2C9B2884229D0601C6C
:1042B00050F080500078C0B2002808D1207A10F069
:1042C000D0006D0015F00E050543257219E00021A0
:1042D0002000FFF722FF2000FFF724FF0028FAD17B
:1042E000207A10F0D0006D0015F00E050543257200
:1042F00001212000FFF711FF2000FFF713FF012825
:10430000FAD131BD80B5FFF746FF02BD10B50400FC
:10431000A01D50F094500078C0B2002808D1201D94
:1043200050F098500078C0B2002801D1002012E06F
:104330002000FFF7E7FF211D51F081510978491C4A
:10434000C9B2B0FBF1F0611D51F082510978103112
:10435000C9B24843400810BD10B50400607910F0A0
:10436000E00012F01F0202436271207910F0D800C1
:1043700050EA431011F00701014351F0400121714F
:104380002000FFF7D5FE0028FAD010BD010051F043
:1043900084500078C0B2002801D1002010E0481CF1
:1043A00050F080500078C0B2002802D12148006847
:1043B00006E023480068083151F085510978C8406B
:1043C000704710B504002000FFF7A0FEC0B200281F
:1043D00008D002280ED009D303280FD12000FFF700
:1043E00095FF0CE02000FFF735FF08E02000FFF705
:1043F000CDFF04E02000FFF7CEFE00E0002010BD5E
:1044000010B4447814F0C304090111F030012143C1
:10441000D20012F0080211439B0013F00403194369
:10442000417010BC70470000000010111C030020F8
:104430000000101204000020685D000000009012CF
:10444000000000208901DFF8F4221043017070475A
:10445000811DDFF8EC0201430878C0B270474900C3
:1044600050F084500170704750F0805001707047D8
:10447000401C50F0805001707047801D50F08050FB
:104480000078C0B270478901001D50F0985001704B
:104490007047801D50F084500078C0B2002801D0D1
:1044A000012000E00020C0B27047C90150F09C50CC
:1044B00001707047490150F09450017070478901B4
:1044C000821CDFF8780202431170704747F23051C6
:1044D00000E000BF0800411E0028FAD1704738B53F
:1044E00004000025200000B2B0F5807F09DB4FF406
:1044F00043729449944800F033F9AFF3008000E030
:104500006D1C200000B2E840C007F9D52800C0B2F9
:1045100032BD2DE9FC410400002500268C48FFF740
:10452000D0FB00B2FFF7DBFF8046B4F90000FFF7D5
:10453000D6FF070087485FFA88F800EBC80039000B
:10454000C9B210F801804046C0B200280BD0022842
:1045500030D01AD3042821D00BD3062836D02FD33D
:10456000072850D053E0794AE1797948FFF7FCFBFE
:104570004DE076480190E0790090237AA2792900F5
:10458000C9B27348FFF733FC41E000200090637923
:104590002279E1796E48FFF77BFC38E0002001903A
:1045A000E0790090237AA2792900C9B26848FFF720
:1045B000CBFC2CE0227961796548FFF726FD26E0E7
:1045C0002900C9B26248FFF73DFD20E03800C0B2C3
:1045D000072803D03800C0B206280AD1207B0090FB
:1045E000E37A3200D2B22900C9B25948FFF735FD4B
:1045F00008E002215648FFF725FF5548FFF728FF3E
:104600000228FAD103E05248FFF76CFDFFE740466D
:104610003900C0B2C9B288428CD1A1784C48FFF7AA
:104620001EFFE1784A48FFF71FFFA078002811D04D
:104630002079012803D161794548FFF72BFE2179C4
:104640004348FFF715FF4248FFF717FF2179C0B233
:104650008142F8D1607A002806D0A37A227BE17AE1
:104660003B48FFF779FE03E000213948FFF70BFFD5
:104670000020BDE8F68138B504000D00002C07D0FD
:1046800040F2FE322F49304800F06AF8AFF3008064
:104690000020A87A01281FD12879002801D00821FC
:1046A00000E000216879002801D0042200E0002207
:1046B000A879002801D0022300E00023E87900282F
:1046C00001D0012000E0002011431943014322489A
:1046D00050F8240000F056F815F10B01200000F00E
:1046E00016F8AB7A2A7A697A1948FFF789FEA87A10
:1046F000012807D1E87A012804D11548FFF7C9FE3F
:104700000028FAD0286815490860002032BD38B565
:1047100004000D00A978104850F82400FFF7CFFEE0
:1047200029780D4850F82400FFF7BFFE69780A4841
:1047300050F82400FFF7BEFE31BD0000000010134A
:1047400000001011E4590000F85D0000CD440000A5
:1047500000400640745B0000785E00001C030020EF
:1047600000B583B00091019202906A460449182076
:10477000ABBE002801D1FEF745FC03B000BD00BF71
:1047800010100200027812F0F0021143017070471D
:1047900030B40200D2B2002A08D0022A2CD018D39A
:1047A000042A4FD03BD3052A5FD071E0DFF8A02266
:1047B000126852F48062DFF898321A604FF4407247
:1047C000DFF890321A604FF44072DFF88C321A60D2
:1047D0005EE0DFF87C22126852F40062DFF870328B
:1047E0001A604FF44072DFF874321A604FF440726E
:1047F000DFF86C321A604BE0DFF85422126852F492
:104800008052DFF84C321A604FF44072DFF85432B5
:104810001A604FF44072DFF850321A6038E0DFF867
:104820003022126852F40052DFF824321A604FF43A
:104830004072DFF838321A604FF44072DFF83032DD
:104840001A6025E0DFF82C22126852F48062DFF84B
:1048500024321A604FF40062DFF81C321A604FF401
:104860000062DFF818321A6012E0DFF808221268DE
:1048700052F40062DFF8FC311A604FF44072DFF846
:1048800000321A604FF44072DFF8F8311A60FFE727
:10489000DFF8F4210300DBB252F82320D27812F0C3
:1048A000F302DFF8E4310400E4B253F82430DA70A4
:1048B000DFF8D4210300DBB252F823209278DFF82E
:1048C000C8310400E4B253F824309A70DFF8BC21F8
:1048D0001368DFF8BC2153430A01B3FBF2F2140062
:1048E000A4B2B4F5005F01DB41F6FF72B3FBF1F354
:1048F000110089B2B3EB0113DFF88C110400E4B2AC
:1049000051F824100C7814F0E004C2F304210C4395
:10491000DFF874110500EDB251F825100C70DFF8C6
:1049200068110400E4B251F824104A70DFF85811FD
:104930000200D2B251F82210897A11F0E00113F08E
:104940001F030B43DFF840110200D2B251F82210CE
:104950008B72DFF834110200D2B251F82210097CB8
:1049600051F08801DFF820210300DBB252F8232048
:104970001174DFF814110200D2B251F82210C97874
:1049800051F00C01DFF80021C0B252F82000C170D4
:1049900030BC7047DFF8F0100200D2B251F822109C
:1049A00009798906F6D5DFF8E010C0B251F8200089
:1049B000C0797047344A0300DBB252F823201279E1
:1049C0001206F7D5304AC0B252F82000C1717047C4
:1049D00080B50020FFF7DEFF0100C9B20020FFF71D
:1049E000E9FF01BD80B50120FFF7D4FF0100C9B286
:1049F0000120FFF7DFFF01BD80B50220FFF7CAFFEE
:104A00000100C9B20220FFF7D5FF01BD80B5032028
:104A1000FFF7C0FF0100C9B20320FFF7CBFF01BDC4
:104A200080B502210220FDF7CFFE0420FFF7B2FF80
:104A30000100C9B20420FFF7BDFF01BD80B505200C
:104A4000FFF7A8FF0100C9B20520FFF7B3FF01BDC2
:104A5000348004403C900440389004400CB0044042
:104A600010B0044008C004400CC0044040B00440F2
:104A700044B004402880044064D0044060D0044026
:104A800024D0044020D00440300000202403002023
:104A900040420F0020202020FE000000FE80402029
:104AA0001000101008047F0000003F4040407000DC
:104AB0000808E828282A2C282828E80808000020C8
:104AC000130A42427E02020A1320000000F0909076
:104AD0009090FE90909090F00000000F0404040469
:104AE0003F44444444477000808282828282C2A252
:104AF000928A868280000000000040407F00000013
:104B000000000000404848F8444420C41800FE005B
:104B100000000804037F0204020202027F01010078
:104B20001010FE1000909090FE90901000004242F5
:104B30007F014040231408142340400004FC242437
:104B4000FC0400FC040404FC0000101F11097F0891
:104B5000403302020213600010608000FE0000007B
:104B6000FE0080700000404043407F4040407F4254
:104B7000414040007010929490929490989412103A
:104B800070000404040444447E0605040404040084
:104B9000FC04649C001848484A4C484818007F08A8
:104BA00008074022120E02023E426200202020200E
:104BB000A07E20E0242820A020004020100C2320EC
:104BC000103F44424140700000FC444444C2420053
:104BD000FC0444B40C00101F1010080F08007F00E4
:104BE00010100F0028A6643C64A420FC848484FC7C
:104BF000000001007E2A2A2A2A2A2A2A7E00000092
:104C000010989492909830003E4848447400007F79
:104C10000A0A4A7F00003F44444271001090FE900F
:104C20001000FC040404FC00000002017F0041307D
:104C30000F0000003F407000809E9292929EC09EA6
:104C400092B2D29E8000047C4A4A49780078494A50
:104C50004A7C04000000000000807E80000000000C
:104C60000000404020100C0300030C1020404000C6
:104C70004042CC00846C544CD444524E020040203C
:104C80001F20425A52525F52525A42001010FE10D8
:104C90000098482A0C082848980042427F010040AA
:104CA00042427E4242424000809E9292929EC09E2C
:104CB00092B2D29E8000047C4A4A49780078494AE0
:104CC0004A7C04001010FE10504858EA4C685848BE
:104CD000400042427F01424A2E13122A264202001D
:104CE00000F80000FE004020DE1010F01000000769
:104CF00002017F00402017081621400000302C20C0
:104D0000A0702E2020202428200010084442412793
:104D10002911292543404000808498008092949076
:104D2000F0909492800040201F204050484641421D
:104D3000445840001010FE1000B88888EA8C88881B
:104D4000B80042427F010040442718081423400065
:104D50002050CE4800C8B820A8FEA8F820000202C3
:104D60003F5228102F204A7F4A4A48000000008006
:104D70008000000000000000000000000019190081
:104D80000000000000000000002081490860804809
:104D9000804A814BC0E902237D4800220023C0E9FC
:104DA00004237B4800220023C0E906234FF4C87087
:104DB0007A49086079487A4A7A4BC0E902237748F1
:104DC000774A784BC0E90423744800220023C0E9E5
:104DD00006237548754908607448754A754BC0E9E3
:104DE00002237248724A734BC0E904236F480022C1
:104DF0000023C0E906237047F8B50700644800683F
:104E0000C71B634840683818614948606048066AB3
:104E1000BE1B5F4807626848B0F9000000F0D4F894
:104E200004000D00380000F0CFF8594AD2E90223FF
:104E3000FDF7A2FA22002B00FDF7E2F904000D00B5
:104E4000300000F0C1F8524AD2E90623FDF794FA87
:104E500022002B00FDF7D4F9FDF764FB57490880C9
:104E60005648B0F90000FEF7B1FBF1BDF8B50700F8
:104E70004A480068C71B4948406838184749486095
:104E80004648066ABE1B454807624448006800F071
:104E90009BF804000D00380000F096F83F4AD2E974
:104EA0000223FDF769FA22002B00FDF7A9F904009F
:104EB0000D003A48406800F087F8384AD2E90423E8
:104EC000FDF75AFA22002B00FDF79AF904000D00B5
:104ED000300000F079F8314AD2E90623FDF74CFAA8
:104EE00022002B00FDF78CF9FDF71CFB34490880EC
:104EF0003348B0F900100620FEF744FBF1BDF8B5C9
:104F000007002A480068C71B284840683818274906
:104F100048602648066ABE1B24480762234800688A
:104F200000F052F804000D00380000F04DF81F4A60
:104F3000D2E90223FDF720FA22002B00FDF760F9E9
:104F400004000D001948406800F03EF8174AD2E905
:104F50000423FDF711FA22002B00FDF751F904009C
:104F60000D00300000F030F8104AD2E90623FDF7BA
:104F700003FA22002B00FDF743F9FDF7D3FA11499C
:104F800008801048B0F900100720FEF7FBFAF1BDC9
:104F9000A002002079E9263108AC7C3FC80200203D
:104FA0009A9999999999B93FE0FCFFFFF002002086
:104FB0000AD7A3703D0AB73F980200209C870020C3
:104FC0009E870020A0870020C11768B14840401A82
:104FD000B0FA80F29040D21CC907C2F5846241EA5F
:104FE000025202EBD02140057047FEE700000000AE
:104FF00000000000002F0000000007000700001460
:105000007F147F1400242A7F2A120062640813236D
:1050100000364955225000000503000000001C2204
:105020004100000041221C000014083E0814000842
:10503000083E0808000000A06000000808080808F2
:10504000000060600000002010080402003E51498A
:10505000453E0000427F4000004261514946002128
:1050600041454B31001814127F1000274545453942
:10507000003C4A494930000171090503003649499D
:10508000493600064949291E000036360000000056
:1050900056360000000814224100001414141414A1
:1050A000000041221408000201510906003249594A
:1050B000513E007C1211127C007F49494936003E66
:1050C00041414122007F4141221C007F4949494121
:1050D000007F09090901003E4149497A007F08081B
:1050E000087F0000417F4100002040413F01007FD8
:1050F00008142241007F40404040007F020C027FA4
:10510000007F0408107F003E4141413E007F0909B5
:105110000906003E4151215E007F091929460046DB
:10512000494949310001017F0101003F4040403FB2
:10513000001F2040201F003F4038403F00631408FC
:1051400014630007087008070061514945430000D7
:105150007F41410000552A552A55000041417F00FA
:1051600000040201020400404040404000000102EF
:105170000400002054545478007F484444380038D8
:105180004444442000384444487F00385454541860
:1051900000087E0901020018A4A4A47C007F080472
:1051A00004780000447D4000004080847D00007F42
:1051B000102844000000417F4000007C041804785F
:1051C000007C0804047800384444443800FC24245B
:1051D00024180018242418FC007C08040408004843
:1051E0005454542000043F444020003C4040207C64
:1051F000001C2040201C003C4030403C0044281053
:105200002844001CA0A0A07C004464544C44141406
:1052100014141414017070477CB50600A221524882
:10522000FFF7F8FF5148D0E90023CDE9002300F053
:105230008FF869464C4800F0E2F84D48006850F499
:1052400078504B4908603000C0B2002836D0F6B222
:10525000012E0AD0022E0ED0032E12D0042E16D00C
:10526000052E1AD0072E1ED023E004240E25414817
:1052700000F07FF922E0042414253F4800F079F97A
:105280001CE0042418253D4800F073F916E00424BE
:105290001F253B4800F06DF910E00324182539481C
:1052A00000F067F90AE003241C25374800F061F993
:1052B00004E003241C25344800F05BF92900C9B23E
:1052C000103132204143022091FBF0F02100C9B29D
:1052D000491C90FBF1F02D4908602C4800684008FB
:1052E0002B49086080202B49087014F007042A48D5
:1052F00004702A4800682949096851F47021274A36
:105300001160224909681E22B1FBF2F1090411F46F
:10531000702151F09871224A11602049086015F0FF
:105320001F0555F040051F4805701F48007880068E
:10533000FBD51D4800784006FBD5002015490870B4
:1053400019480078C0B2C0F381000328F8D173BDBA
:10535000F8B568461549102200F04EF9694600205C
:10536000FFF789F905B000BD00E00740085E0000C6
:1053700038800440D85C0000F05C0000085D00004C
:10538000205D0000385D0000505D0000200300201B
:1053900024030020004006400440064000F0014085
:1053A000448004400540064006400640785D000009
:1053B00010B504000021621C5948024311702000FE
:1053C00000F0B4F80128FAD110BD10B50400402156
:1053D000621C534802431170200000F0A7F8042813
:1053E000FAD110BD10B504006021621C4C48024384
:1053F0001170200000F09AF88028FAD110BD38B55D
:1054000004000D00200000F091F8C0B2012804D083
:10541000042809D080280FD01DE02878C00602D5C6
:105420002000FFF7D2FF16E0288810F4837F02D017
:105430002000FFF7BDFF0EE0288840F2011108426E
:1054400008D12000FFF7B4FF2878C00602D520005D
:10545000FFF7BBFFFFE7B5F9000001280FD00228D6
:1054600019D0042821D008280DD0102813D02028C6
:105470001BD0802819D0B0F5807F08D04DE02000E7
:10548000FFF796FF49E02000FFF79FFF45E020006F
:10549000FFF7A8FF41E02348006830F004002149ED
:1054A00008606078009030BF37E069798901A21CFC
:1054B0001D4802431170A879C000A11C51F08C5105
:1054C0000870E8784001A11C51F0945108702879C7
:1054D0000001A11C51F090510870B5F9000004289A
:1054E00001D100200BE0B5F90000202801D10220F5
:1054F00005E00420A978A21C52F081521170611CB1
:1055000051F0815108700748006850F004000549C7
:1055100008606078009030BFFFE7002032BD0000D7
:105520000000901210ED00E000001013C0787047EA
:1055300041F244010144DFF8A40001430868C0B20D
:105540007047C9B28904DFF89820104301607047A2
:105550001CB5040020790090E378A2786178DFF828
:10556000880000F08DF82178DFF87C00FFF7E9FF74
:1055700013BD1CB50400002C08D1CE22DFF86C103E
:10558000DFF86C00FFF7ECF8AFF300800720009025
:10559000072301220021DFF8500000F071F82000FD
:1055A000FEF7B7FF14F11100FFF7D2FF14F10E015F
:1055B0000020FFF7ACF800F005F8DFF838100860BD
:1055C000002016BD10B50748FEF7FBFE0400064894
:1055D000FFF7AEFF401CB4FBF0F010BD0000301E22
:1055E000000010190040064000700440685A000096
:1055F000005E000048000020103A07D330B4B1E844
:105600003810103AA0E83810F9D230BC530724BF44
:10561000B1E80810A0E8081044BF51F8043B40F876
:10562000043BD20724BF31F8022B20F8022B44BFE1
:105630000B7803707047121F17D35B0009D151F824
:10564000043B20F8023B1B0C121F20F8023BF6D251
:105650000BE051F8043B00F8013B1B0A20F8023B29
:105660001B0C121F00F8013BF3D238BF121D521E53
:1056700024BF11F8013B00F8013BF8D87047FEE762
:1056800030B4029C41F244054559ADB2C9B255EA65
:105690000175D2B2120612F070622A43DBB21B050A
:1056A00013F470031A43E4B2240414F47024224364
:1056B00041F24401425030BC7047FEE7012210F035
:1056C0001F018A403B4940B2400941F82020704701
:1056D00080B5394A126852F40002374B1A60374AD3
:1056E000126892089200354B1A6049F640425143C5
:1056F000334A0300DBB21B01D15031490200D2B260
:1057000012011144C96851F001012D4A0300DBB2B6
:105710001B011A44D1602A490200D2B2120111447D
:10572000896851F00301264A0300DBB21B011A44C9
:105730009160303040B2FFF7C1FF01BD80B5214814
:10574000006850F001001F49086002210220FDF7A7
:105750003BF81D48FDF7E0FE1C4908801C48FDF79A
:10576000DBFE40421B4908801848B0F90000FFF7F3
:105770007DFB1848B0F90000FFF7C1FB01BD80B503
:105780001548006850F0010013490860022101200B
:10579000FDF71AF801BD1048006850F001000E49ED
:1057A000086070470D48006850F001000B49086020
:1057B0007047000000E100E03C80044000700340BE
:1057C000007103400C71034000900340908700205B
:1057D00000A00340928700201C7103403C710340ED
:1057E000BFF34F8FBFF36F8F002027490860274812
:1057F000006850F4003025490860BFF34F8FBFF3B5
:105800006F8F704710B4002021490860BFF34F8F9D
:1058100020480168C1F34E32C1F3C90343F6E0707A
:1058200010EA421050EA83701B4C20601800431E9F
:105830000028F3D11000421E0028EDD1BFF34F8F96
:105840001248006850F4803010490860BFF34F8F51
:10585000BFF36F8F10BC704780B51048006850F4DC
:1058600070000E4908604CF220500D4908804DF63A
:1058700028100B4908804FF4E9700A490880FFF7A7
:10588000AFFFFFF7BFFF01BD50EF00E014ED00E0F8
:1058900084ED00E080ED00E060EF00E088ED00E0E6
:1058A0000E200540002005402DE9FE4368462949A9
:1058B000D1E90023C0E900230A2203219DF8030057
:1058C000FCF79BFE05000A2203219DF80000FCF76F
:1058D00094FE06000A2203219DF80200FCF78DFECB
:1058E00007000A2203219DF80100FCF786FE040050
:1058F0000A2203219DF80300FCF77FFE80460A225E
:1059000003219DF80000FCF778FE81460A2203215E
:105910009DF80200FCF771FE1FFA89F919FA88F167
:1059200011FA80F80A2203219DF80100FCF765FEB8
:1059300018FA80F1ADB2B6B2AD1B15FA87F0A4B279
:10594000041B42F21070444394FBF1F0BDE8FE8367
:1059500000000000705E000080B50420FFF75CFCD2
:10596000FBF7D2FBFCF716FF5FF4E1310420FEF7F2
:105970000FFFFBF7D4FFFDF7F3FDFDF7D3FDFFF7B6
:1059800003FA1648FDF748FD1548FDF745FD64216B
:105990000020FFF79DFE64210120FFF799FEFAF732
:1059A0002FFDFCF7DDFDFBF745FDFBF725FD0AA20A
:1059B00000210020FBF76DFE3220FBF723FC62B6CE
:1059C00001210620FCF700FFFFF76EFFFFF714FA36
:1059D000FAF740FDF8E700BF3136000000900340C1
:1059E00000A00340443A5C50726F6A6563745C4D7A
:1059F000656E74616C6C7920726574617264656443
:105A0000206361725C4B56353820466F72206D659D
:105A10006E74616C6C792072657461726465642067
:105A20006361725C4B56353820466F72206D656E2F
:105A300074616C6C79207265746172646564206352
:105A400061725C4C51757365725C73797374656DCA
:105A50005C66736C5F636C6F636B5F6D616E6167D7
:105A600065722E6300000000443A5C50726F6A65F4
:105A700063745C4D656E74616C6C792072657461E1
:105A800072646564206361725C4B56353820466FE2
:105A900072206D656E74616C6C79207265746172D0
:105AA000646564206361725C4B56353820466F72C2
:105AB000206D656E74616C6C7920726574617264BE
:105AC0006564206361725C4C51757365725C7379B7
:105AD0007374656D5C66736C5F636C6F636B5F4D55
:105AE0004B5635384632342E6300000080B50E48E0
:105AF00001680E480068800714D5002912D0D1E94A
:105B00000423521C73F1FF33C1E904238869002880
:105B100008D0486A002802D00120086202E0C86963
:105B20008969884701BD00001803002010E000E0EB
:105B30000C480D49884210D0002006E00A4951F86F
:105B40002010084A42F82010401C0849B0EB910F81
:105B5000F4D304480649086002E003480449086099
:105B6000704700BF000000000000000000000000BF
:105B700008ED00E000010103040404040001020335
:105B800004040404010102010101010100010103F7
:105B900004040404000101030405060604040404CB
:105BA00004050606040404040405060706060606A2
:105BB0000606060619E050F8042BD30744BFA9F1E6
:105BC00001039A18091F0023042942F8043BF9D263
:105BD0005FEA817C134604D54FF0000CA2F800C0A8
:105BE0009B1CC90744BF0021197050F8041B0029F1
:105BF000E1D17047B1B1BEA9B5E7D7D3BFC6BCBC30
:105C0000D6B0D2B5D1A7D4BAC1FAC7F1D6C7C4DCD1
:105C1000BBFAC6F7C8CBD2A3BFD8C6F7BDD3CAD587
:105C2000B7A2CBCDB0B4BCFCA3BA000010B50749F5
:105C300079441831064C7C44163404E00A68081D87
:105C4000114488470146A142F8D110BD2C00000044
:105C5000380000004EF68851CEF20001086840F48A
:105C600070000860BFF34F8FBFF36F8F4FF000706D
:105C7000E1EE100A704700003DFFFFFF08850000BD
:105C8000A00200200000000000F00DF8002801D064
:105C9000FFF7CCFFAFF300800020AFF30080FFF7E9
:105CA0005BFE00F002F80120704700F001B8000030
:105CB00007463846FDF7AAF9FBE7000072B603482D
:105CC00080470348804762B60248004759580000A1
:105CD000315B0000ED5D0000800001000000060067
:105CE000000000030800010000030001010500009E
:105CF0008000010000000300000000041400010007
:105D00000003000102070000800001000000030002
:105D10000000000418000100000300010207000059
:105D20008000010000000300000000041F000100CB
:105D300000030001030900008000010000000300CF
:105D40000000000318000100000300010309000027
